:100000000C944F010C946E010C946E010C946E01D3
:100010000C946E010C946E010C946E010C946E01A4
:100020000C946E010C946E010C946E010C946E0194
:100030000C946E010C946E010C946E010C946E0184
:100040000C946E010C946E010C946E010C946E0174
:100050000C946E010C946E010C946E010C946E0164
:100060000C946E010C946E010C944F010C946E0173
:100070000C946E010C946E010C946E010C946E0144
:100080000C946E010C946E010C946E010C946E0134
:100090000C946E010C946E010C946E010C946E0124
:1000A0000C946E010C946E010C946E010C946E0114
:1000B0000C946E010C946E010C946E010C946E0104
:1000C0000C946E010C946E010C946E010C946E01F4
:1000D00000000000434F4E534F4C4500000000000D
:1000E000000000009F099F099F099F099F099D0922
:1000F0009F099F099F0900389F0935010000004EA4
:10010000554C4C4445560000000000000000009F84
:10011000099F099F099F099F099D099F099F099DA3
:100120000900009D0900020000004E414D4553505A
:1001300041434500000000000000211B771C9D0981
:100140009D099D099D099D099D099D0900009D0925
:100150000000202020202020202020080808080857
:10016000202020202020202020202020202020208F
:100170002020081010101010101010101010101067
:1001800010100404040404040404040410101010E7
:1001900010101041414141414101010101010101A2
:1001A0000101010101010101010101010110101012
:1001B0001010104242424242420202020202020275
:1001C00002020202020202020202020202101010E5
:1001D000102043616E2774207374617274757020EF
:1001E00073797374656D006E616D657370616365BD
:1001F0003A20646576696365206E616D65202573BC
:1002000020746F6F206C6F6E670D0A006E616D65F4
:1002100073706163653A2063616E6E6F74206D6FF9
:10022000756E74206465766963652025640D0A0027
:100230000A0A416C6C20757365722070726F636579
:1002400073736573206861766520636F6D706C658C
:100250007465642E0A0A00506F7274207379737487
:10026000656D2072616E206F7574206F66206D65FC
:100270007373616765206E6F646573000A0A4D6170
:10028000696E2070726F6365737320726563726547
:100290006174696E67207368656C6C0A0A001124CA
:1002A0001FBECFEFD8E0DEBFCDBF12E0A0E0B1E0CF
:1002B000E4E8F3E402C005900D92A839B107D9F73C
:1002C00025E0A8E9B2E001C01D92AF39B207E1F71D
:1002D0000C94E2070E94E81D0C946D050C9400003C
:1002E00081E008950F931F93CF93DF9300D000D048
:1002F000CDB7DEB719821A821B821C8219821A823C
:100300001B821C8209811A812B813C8106171707E9
:100310002807390770F4000009811A812B813C817C
:100320000F5F1F4F2F4F3F4F09831A832B833C834F
:10033000E9CF0F900F900F900F90DF91CF911F9109
:100340000F91089580E284B92D9A60E47DE083E006
:1003500090E00E9472012D9860E47DE083E090E0DF
:100360000C9472011092B30281E00895CF93DF9351
:10037000C82FD62F0E94E81DC43050F497E2C9025E
:10038000F0011124E754FC4F20813181232B21F40B
:100390000E94E81D8FEF05C0C281D2830E94E81D34
:1003A0008C2FDF91CF9108958091080090910900E2
:1003B0008E7F90930900809308008091B7029091FE
:1003C000B80201969093B8028093B702883E93409A
:1003D00068F08091B9029091BA0201969093BA02A6
:1003E0008093B9021092B8021092B702E091B40261
:1003F00084E0E802F0011124EE53FB4FE281E43087
:100400007CF424E0E202F0011124EE53FB4F8081E2
:100410009181019791838083892B11F40E9413139A
:100420008091B5029091B602019711F481E090E0BD
:100430009093B6028093B5020895CF93DF930E9404
:10044000500B8093B40281E090E09093B6028093C9
:10045000B5021092BA021092B9021092B80210922C
:10046000B702E0E0F0E1868597858160978786870F
:10047000C0E0D0E08881998184609983888387E097
:1004800090E09D8B8C8BFF8BEE8B8E819F818160AA
:100490009F838E8364ED71E08CE290E00E945D05A5
:1004A00067E97FE08EE090E00E945D058881998198
:1004B000816099838883DF91CF910895CF93DF93F3
:1004C000C82F0E94E81DD82FC33020F00E94E81DDD
:1004D000CFEF10C02BE2C202C001112480539F4F06
:1004E000DC015896ED91FC9159970995C82F8D2FF5
:1004F0000E94E81D8C2FDF91CF910895CF92DF925B
:10050000EF92FF920F931F93CF93DF93C82F8B012E
:100510007A0169010E94E81DD82FC33020F00E94A3
:10052000E81DCFEF13C02BE2C202C001112480539B
:100530009F4FDC019496ED91FC9195979601A70150
:10054000B8010995C82F8D2F0E94E81D8C2FDF91CF
:10055000CF911F910F91FF90EF90DF90CF90089572
:100560007F928F929F92AF92BF92CF92DF92EF9243
:10057000FF920F931F93CF93DF93CDB7DEB7EA8837
:10058000FB887C888D889E880E94E81D082F24E6C1
:10059000E216F10418F484E6E82EF12C33E0E30EC1
:1005A000F11C57018CEFA82244E050E0B4018BEB22
:1005B00092E00E94D11EC5010E944C077C01019669
:1005C00009F4BDC01091980224E030E087E213786E
:1005D00017FF03C011501C6F1F5FC12E012E000CAE
:1005E000DD088C9DF0018D9DF00D1124E754FC4F2A
:1005F0004081518191E0910F452B29F4909398020D
:100600001F3FA9F49CC0192F2150310901F7909385
:10061000980244E050E067E971E08BEB92E00E94C1
:10062000C31E892B09F08BC00E94E10788C01714F4
:100630000CF085C0809155049091560401969093DA
:1006400056048093550485E090E091838083728204
:10065000F682E582B086A782108EF401B7E21B0213
:10066000A001112480E090E02191DC01A40FB51FCE
:10067000A754BC4F19962C93222321F001968F305A
:10068000910591F727E22C9DC0012D9D900D11241D
:10069000FC01E754FC4F5F018FEF818F0E942F0711
:1006A000D5015A968C935A975C961C925C975E96ED
:1006B0001C921E925D9790961C921E925F97929646
:1006C0001C921E929197F7017C9797012C53310948
:1006D000AE01475E5F4F6F89788D4F0180E090E0FB
:1006E0008617970751F0DA01AD90BD90AD01D401A6
:1006F000AD92BD924D010196F3CF89ED92E19387C2
:100700008287888999899587848717861686BCE2AF
:10071000EB1AF108F90111921192EE16FF06D9F7C2
:1007200087E28C9DF0018D9DF00D1124E754FC4F64
:1007300034832383802F0E94E81D812F04C0802FE3
:100740000E94E81D8FEFDF91CF911F910F91FF90D5
:10075000EF90DF90CF90BF90AF909F908F907F9061
:1007600008952F923F924F925F926F927F928F9255
:100770009F92AF92BF92CF92DF92EF92FF920F9330
:100780001F93CF93DF9300D01F92CDB7DEB76C01DC
:100790003B01498380E190E07C01E61AF70ADB82A5
:1007A000CA828B018CE9482E81E0582E9AEA292EC4
:1007B00091E0392E8A819B818C199D0986159705B8
:1007C00008F022C12B812F933A813F935F924F9281
:1007D0002091B80337E22303F0011124E754FC4FC2
:1007E00080A18F93878D8F930E94E81E0F900F90AA
:1007F0000F900F900F900F90AA80BB80812C912CAE
:10080000C40187709927892BA1F43F922F922091E0
:10081000B80337E22303F0011124E754FC4F80A111
:100820008F93878D8F930E94E81E0F900F900F90EB
:100830000F90F50181915F011F928F9322EA31E0C1
:100840003F932F932091B80337E22303F001112443
:10085000E754FC4F80A18F93878D8F930E94E81EF1
:100860008FEF881A980A0F900F900F900F900F90AB
:100870000F900815190529F090E18916910409F0E7
:10088000BFCF0031110510F5A12CB12C1CC0A11453
:10089000B104D9F588EA91E09F938F932091B80332
:1008A00037E22303F0011124E754FC4F80A18F931A
:1008B000878D8F930E94E81E8FEFA81AB80A0F90B9
:1008C0000F900F900F90AE14BF0408F3E981E13050
:1008D00009F079C0ECEAF1E0FF93EF932091B803BF
:1008E00037E22303F0011124E754FC4F80A18F93DA
:1008F000878D8F930E94E81E0F900F900F900F909E
:100900008A809B80A12CB12C3FC0C501877099279C
:10091000892B09F0BFCF3F922F922091B80337E285
:100920002303F0011124E754FC4F80A18F93878D9E
:100930008F930E94E81E0F900F900F900F90AACFF8
:100940001F928F932FEA31E03F932F932091B803AA
:1009500037E22303F0011124E754FC4F80A18F9369
:10096000878D8F930E94E81E8FEFA81AB80A0F9008
:100970000F900F900F900F900F900A151B0569F0C4
:1009800090E1A916B10449F0F40181914F0190EE74
:10099000980F9F35A8F28EE2D3CFEDEAF1E0FF93F6
:1009A000EF932091B80337E22303F0011124E754B9
:1009B000FC4F80A18F93878D8F930E94E81E0F902C
:1009C0000F900F900F908EED91E09F938F93209159
:1009D000B80337E22303F0011124E754FC4F80A150
:1009E0008F93878D8F930E94E81E005111098A8191
:1009F0009B8140969B838A8390E1E90EF11C0F90C6
:100A00000F900F900F90D6CE0F900F900F90DF9118
:100A1000CF911F910F91FF90EF90DF90CF90BF90FB
:100A2000AF909F908F907F906F905F904F903F908E
:100A30002F900895CF93DF93CDB7DEB767970FB6AA
:100A4000F894DEBF0FBECDBF843148F4E1E0F0E0A2
:100A5000EC0FFD1FE80FF11D8591949102C082EB10
:100A600091E067960FB6F894DEBF0FBECDBFDF9161
:100A7000CF91089548EB50E060E070E080E093E0B3
:100A80000E94BC1EE2E0F3E08AE195E0819391933D
:100A900023E0E238F207D1F7809112ED909113ED47
:100AA000909313ED809312ED80E093E0909305ED29
:100AB000809304ED81E090E008958D35910550F428
:100AC000880F991FFC01E050FD4F7183608381E026
:100AD00090E008958FEF9FEF08950E942F070C94E8
:100AE000A1091F93CF93DF93182FD92F0E94E81DE0
:100AF000C82FA12FBD2FEE91E7FD04C08091B30256
:100B0000E8172CF08C2F0E94E81D8FEF14C085E0B1
:100B1000E802F0011124E656FD4F80819181119683
:100B20009C938E93B183A08382810E947D118C2F30
:100B30000E94E81D81E0DF91CF911F9108950F93EE
:100B40001F93CF93DF93EC018B010E94E81D0115E9
:100B5000110579F12091960430919704C217D307BB
:100B600040F120919804309199042C173D0708F129
:100B7000B801695F7F4F687FE0916704F091680476
:100B8000A7E6B4E0309741F0EC17FD07C8F4DF01A9
:100B90000190F081E02DF6CF94E0A736B907E9F097
:100BA00012962D913C9113972A0F3B1FC217D30722
:100BB00020F40E94E81D8FEF46C0309739F40FC033
:100BC00094E0A736B90761F720E030E0AE01460FA8
:100BD000571FE417F50718F4ECCF20E030E0409100
:100BE000690450916A04460F571F50936A0440935A
:100BF0006904C217D30761F412962D913C911397A3
:100C0000620F731F13967C936E931297ED0106C0CB
:100C1000F983E8837B836A83CD93DC932A813B81CC
:100C2000AE01420F531FE417F50751F4428153817F
:100C3000240F351F3B832A83208131813983288308
:100C40000E94E81D81E0DF91CF911F910F910895DF
:100C5000EF92FF920F931F93CF93DF93F82E0E9492
:100C6000E81DE82EF7FC04C08091B302F81634F0BA
:100C70008E2D0E94E81D8FEF9FEF17C08F2D95E0FE
:100C800089028001112406561D4FF80182810E94BD
:100C9000DD12F801C081D18188819981918380839F
:100CA000F9928E2D0E94E81DCE01DF91CF911F9108
:100CB0000F91FF90EF900895CF93DF93C82F0E947C
:100CC000E81DD82FC33020F00E94E81DCFEF10C0E0
:100CD0002BE2C202C001112480539F4FDC01909689
:100CE000ED91FC9191970995C82F8D2F0E94E81DD9
:100CF0008C2FDF91CF910895EF92FF920F931F9366
:100D0000CF93DF937C010E94E81DD82F04ED10E003
:100D1000C0E040E150E0B801C7010E94C31E892B2A
:100D200029F08D2F0E94E81D8C2F09C0CF5F055D33
:100D30001F4FC33071F78D2F0E94E81D8FEFDF9199
:100D4000CF911F910F91FF90EF90089524E08202C0
:100D5000D0011124AE53BB4F1296EC91129713960B
:100D60009C9124E09202D0011124AE53BB4F129605
:100D7000EC9324E0E202F0011124EE53FB4F938345
:100D8000089524E08202C0011124FC01EE53FB4FC0
:100D90008281843014F40C94A6068FEF089594E0B9
:100DA0008902F0011124EE53FB4F9281943054F4E8
:100DB0008F5F94E08902F0011124EE53FB4F838191
:100DC0000C94A6068FEF0895CF93DF93EC010E9459
:100DD000E81D2097E9F19E01295F3F4F287FC091D0
:100DE0006704D0916804E7E6F4E0209789F14A812E
:100DF0005B812417350729F4488159815183408349
:100E000013C024173507F8F4DE01A20FB31FB18316
:100E1000A0836881798111967C936E93421B530B5A
:100E200013965C934E9312974091690450916A0413
:100E3000BA01621B730B70936A04609369040E9489
:100E4000E81DCE0109C0FE010990D881C02DCDCF8B
:100E50000E94E81D8FEF9FEFDF91CF910895809161
:100E6000B8030895CF93C82F0E94E81DC43050F4F2
:100E700097E2C902F0011124E754FC4F208131812F
:100E8000232B21F40E94E81DCFEF03C0C2810E94F2
:100E9000E81D8C2FCF9108950F931F93CF93DF936D
:100EA000EC010E94E81D2097E9F02796C87FE091A9
:100EB0006704F0916804A0E0B0E000E010E027E6ED
:100EC00034E0309761F0428153814C175D0710F098
:100ED000D9018F019F010190F081E02DF2CF011522
:100EE000110529F40E94E81D8FEF9FEF22C0F80141
:100EF00022813381C217D30729F4208131812D93B8
:100F00003C9307C02C1B3D0BF80133832283020F57
:100F1000131F2091690430916A042C1B3D0B309300
:100F20006A04209369040E94E81DCE010297800F95
:100F3000911FDF91CF911F910F91089580E090E074
:100F400008958FEF0895CF93DF93C82F0E94E81D77
:100F5000D82FC33020F00E94E81DCFEF10C02BE245
:100F6000C202C001112480539F4FDC015496ED91C1
:100F7000FC9155970995C82F8D2F0E94E81D8C2F45
:100F8000DF91CF9108951F921F921F921F928AEBBB
:100F900091E09F938F9384E18F9384E08F931F92CE
:100FA00088EE9DE19F938F930E94B0020E94F80FFC
:100FB0008DB79EB70B960FB6F8949EBF0FBE8DBF30
:100FC000FFCF0895CF93DF931F92CDB7DEB7F8948C
:100FD0000E94A2010E94321181E40E94471182E422
:100FE0000E9447110E944E118983CE0101960E94F2
:100FF000951E8C0188E50E944711F801E050FF4FD3
:1010000080810E9447110E94B90B87EC91E09F9369
:101010008F930E94510A85ED91E09F938F938AED03
:1010200091E09F938F930E94510A0E94AC0A109204
:101030005604109255041092040510920305E9EB32
:10104000F3E085E594E00F900F900F900F900F90D4
:101050000F90118210821186168215821282B79625
:101060008E179F07B1F707E514E097E6E92E94E0A5
:10107000F92EF8011082128211820E94500BF801A1
:1010800083830C5F1F4FE016F10699F70E94B201AF
:101090000E94500B8093020580E00E94A30781E02C
:1010A0000E94A30782E00E94A307009167041091A9
:1010B0006804F801309721F00190F081E02DFACF1B
:1010C00080EEE82E81E0F82E01151105C1F0F8013F
:1010D000828193810197800F911F9F938F931F931C
:1010E0000F93FF92EF920E94510AF8010081118143
:1010F0000F900F900F900F900F900F90E5CF1F92D1
:101100001F921F921F928FEF91E09F938F938AE01F
:101110008F9384E08F931F9283EC97E09F938F933C
:101120000E94B002F7E28F02C0011124FC01E754D3
:10113000FC4F81E090E0918380830E94E81D0E9433
:101140001D0282ED91E00E94A90B0FB6F894DEBF5C
:101150000FBECDBFFFCF82ED91E00C94A90B9F9302
:101160008F938CE092E09F938F930E94510A0F908F
:101170000F900F900F90FFCFCF93DF9300D000D050
:10118000CDB7DEB7880F991F092E000CAA0BBB0B39
:1011900089839A83AB83BC8389819A81AB81BC812B
:1011A000181619061A061B0644F489819A81AB8128
:1011B000BC810197A109B109EBCF81E090E00F90CC
:1011C0000F900F900F90DF91CF9108959CEF960FA5
:1011D0009B30E0F58430D0F5E82F082E000CFF0B93
:1011E00027E28202D0011124A754BC4F2D913C91DB
:1011F000232B61F194E06902D0011124AE53BB4F5F
:1012000012962C9194E02902D0011124AE53BB4FC9
:101210006D917C9111976417750794F713969C91C3
:101220001397EE0FFF1FEE0FFF1FEE53FB4F2283AE
:1012300093835183408324E09202F0011124EE5302
:10124000FB4F828313968C9381E008958FEF08956E
:101250000F931F93CF93DF939CEF960F9B3008F073
:1012600066C0843008F063C0E82F082E000CFF0B26
:1012700097E28902D0011124A754BC4F2D913C91D3
:10128000232B09F454C0062E000C770BDB01AA0FA8
:10129000BB1FAA0FBB1FAE53BB4F12962C91022E41
:1012A000000C330BEB012196DE012C173D0721F5D5
:1012B000EE0FFF1FEE0FFF1FEE53FB4FA283638362
:1012C00051834083660F771F660F771FFB01EE5334
:1012D000FB4F8283FD01EE0FFF1FEE0FFF1FEE534A
:1012E000FB4F83832A173B0701F180819181841B87
:1012F000950B9183808319C0D901AA0FBB1FAA0F38
:10130000BB1FAE53BB4F0D911C9111974017510756
:101310004CF0401B510B12969C91B901292F990F4B
:10132000330BC2CFD9019E01C3CF81E001C08FEF43
:10133000DF91CF911F910F9108958FEF089581E074
:101340000895EF92FF920F931F93CF93DF93182F7F
:101350000E94E81D082F143080F4E12E012E000CAD
:10136000FF0887E21802F0011124E754FC4F808146
:101370009181892B11F0111105C0802F0E94E81D69
:101380008FEF64C08091550490915604019790931B
:10139000560480935504029714F40E94621387E266
:1013A0008E9DE0018F9DD00D1124C754DC4F612F1D
:1013B0008A8D0E9400118D8D0E945E028F8D0E9489
:1013C0005E0289A10E945E022F813885295F3F4F0E
:1013D000287F8D819E810296B901821B930B0E940A
:1013E0009F05888199818430910579F030F48130AE
:1013F000910549F00297C9F01BC08630910549F06C
:10140000079719F015C019821882812F0E94961231
:101410000FC0E98D84E0E802F0011124E95AFB4F86
:1014200081819281019692838183812F0E94A606F9
:1014300087E28E9DF0018F9DF00D1124E754FC4F43
:1014400011821082802F0E94E81D81E0DF91CF91F0
:101450001F910F91FF90EF900895CF93C82F0E9496
:10146000E81DCA3061F4209100383091013826FF20
:10147000FACF2DE030E030930338209302382091EA
:1014800000383091013826FFFACF2C2F30E030930E
:101490000338209302380E94E81D81E0CF9108951F
:1014A0000895CF93DF93CDB7DEB7BE016B5F7F4F5B
:1014B000FB0181919191BF014DE25AE00E940E150E
:1014C00081E0DF91CF9108951092940410929304DB
:1014D00081E090E00E944D10809395040895CF9391
:1014E000DF93FC0120813181409193045091940459
:1014F00037FD0DC02417350754F4220F331FF901AF
:10150000E559FB4F2081318182179307F9F044316F
:101510005105F4F4EC01809195040E94DD122091B4
:10152000930430919404C90101969093940480939C
:10153000930439832883220F331FF901E559FB4FA8
:10154000D183C083809195040E947D1181E001C008
:101550008FEFDF91CF910895CF93DF9300D0CDB778
:10156000DEB79E012F5F3F4F309397042093960480
:1015700080E29AE49093990480939804E7E6F4E07B
:1015800031832083821B930B938382830F900F9070
:10159000DF91CF9108956F927F928F929F92AF9239
:1015A000BF92CF92DF92EF92FF920F931F93CF9350
:1015B000DF938C016B010E94E81D682EC80108971B
:1015C0000D9708F040C0C60101970A97E0F5809199
:1015D000B3028530C4F50D5F1F4F0C7F58012FEF0C
:1015E000A21AB20AAC9CE001AD9CD00DBC9CD00DFF
:1015F0001124CE010E94E4067C01019621F1709035
:10160000B30281E0870D8093B302E72DF5E0EF028E
:10161000C00111249C0126563D4F4901F901F18278
:10162000E08214830383C6010E944D10F40182837B
:101630008F3F79F4BE01C7010E949F058091B302DC
:1016400081508093B302862D0E94E81D77247A94FE
:1016500017C0F70180E090E00196C816D90639F06E
:1016600095012E0F3F1F31832083F901F5CFCA1951
:10167000DB09CE0DDF1D19821882862D0E94E81D20
:10168000872DDF91CF911F910F91FF90EF90DF9009
:10169000CF90BF90AF909F908F907F906F90089564
:1016A0008091150180313CF592E0980F90931501DF
:1016B000E82F082E000CFF0BDF01AA0FBB1FAA0F9B
:1016C000BB1FAE53BB4F91E0980F12969C9312979D
:1016D0009FEF13969C9313972FEF3FEF2D933C931F
:1016E000EE0FFF1FEE0FFF1FEA53FB4F9283838322
:1016F0001182108208958FEF0895EF92FF920F9359
:101700001F93CF93DF93C82F8B017A010E94E81DAE
:10171000D82FC33020F00E94E81DCFEF12C02BE27B
:10172000C202C001112480539F4FDC015696ED91F7
:10173000FC915797A701B8010995C82F8D2F0E94DA
:10174000E81D8C2FDF91CF911F910F91FF90EF90AB
:101750000895EC010E94E81DDF93CF9386E192E0AB
:101760009F938F930E94510A0F900F900F900F90AC
:10177000FFCF0E943A050C949512E0E0F0E18485D9
:101780009585846090649587848784E998E4909334
:10179000030880930208E0E0F8E3868197819F7D4B
:1017A0009783868385E490E09583848386819781FF
:1017B0008C629783868386819781906297838683E4
:1017C0000895CF92DF92EF92FF920F931F93CF93E2
:1017D000DF93EC016B017A0182E090E09B838A83C6
:1017E0008E819F8101969F838E83088519850115BF
:1017F0001105C9F0F80180819181F7010995F8017F
:101800000281138101151105A9F7EA85FB858091F5
:10181000C0049091C10493838283888599859093B5
:10182000C1048093C004F3E0CF16D10479F4198683
:1018300018861B861A866C817D8188810E94C21061
:1018400060E070E089810E94C21006C088810E9419
:10185000831089810E948310DB82CA82DF91CF913D
:101860001F910F91FF90EF90DF90CF900895FF921E
:101870000F931F93CF93DF93EC010E94E81DF82E86
:10188000C330D10568F48CE08C9F80018D9F100DD2
:10189000112406561B4FF80182819381039731F082
:1018A0008F2D0E94E81D8FEF9FEF18C0F8018181F6
:1018B0000E943410C82F880FDD0BD7FD0BC0F80134
:1018C00080810E943410082E000C990B97FF02C0F3
:1018D000C81BD90B8F2D0E94E81DCE01DF91CF913F
:1018E0001F910F91FF900895CF92DF92FF920F9377
:1018F0001F93CF93DF936C010E94E81DF82ED7FC55
:1019000046C00091BE041091BF0423E030E04CE0DB
:10191000C80101968330910514F080E090E0409F6B
:10192000E001419FD00D1124C656DB4FFE013296D7
:101930006A817B816130710509F59093BF048093C2
:10194000BE0483E090E091838083C6010E944D1025
:10195000888380E090E00E944D1089831B861A8660
:10196000198618868E819F8101969F838E83DD82E2
:10197000CC828F2D0E94E81D802F0DC0215031098F
:1019800011F08C01C5CF9093BF048093BE048F2DBE
:101990000E94E81D8FEFDF91CF911F910F91FF9073
:1019A000DF90CF900895EF92FF921F93CF93DF9334
:1019B000EC017B010E94E81D182FC330D10570F4A3
:1019C0002CE02C9FC0012D9F900D112486569B4F1B
:1019D000FC01228133812330310529F0812F0E94BF
:1019E000E81D8FEF0DC0A70161E070E00E94E10BE0
:1019F000D093BF04C093BE04812F0E94E81D81E0F4
:101A0000DF91CF911F91FF90EF900895CF93DF93D7
:101A1000EC01880F991F880F991F0E94E40690938C
:101A2000C1048093C004019621F485E292E00E94F3
:101A3000A90B81E090E090939D0480939C04109208
:101A4000A1041092A0049093A9048093A80410927A
:101A5000AD041092AC049093B5048093B40410923A
:101A6000B9041092B8041092BF041092BE04E09121
:101A7000C004F091C10421971C161D0634F434965D
:101A8000DF011297ED93FC93F6CF1382128281E06F
:101A9000DF91CF910895CF92DF92EF92FF920F9353
:101AA0001F93CF93DF937C010E94E81D082F83E0F2
:101AB000E816F104E0F48CE08E9DE0018F9DD00DDE
:101AC0001124C656DB4F8A819B81039781F4CE8017
:101AD000DF8089810E94DD128F3F49F08A819B81DE
:101AE000039729F48E819F81C816D90631F0802F83
:101AF0000E94E81D8FEF9FEF2CC0E885F9851081CB
:101B00008A859B85E817F90729F41B861A861986AA
:101B1000188604C082819381998788878091C00448
:101B20009091C10493838283F093C104E093C00435
:101B30008CE08E9DF0018F9DF00D1124E656FB4F39
:101B400080810E947D11802F0E94E81D812F110F3E
:101B5000990BDF91CF911F910F91FF90EF90DF9044
:101B6000CF900895EF92FF920F931F93CF938C0124
:101B70007B010E94E81DC82F0330110570F42CE092
:101B8000209FC001219F900D112486569B4FFC0180
:101B9000228133812330310529F08C2F0E94E81DEA
:101BA0008FEF09C0A70163E070E00E94E10B8C2F6A
:101BB0000E94E81D81E0CF911F910F91FF90EF905F
:101BC0000895CF92DF92EF92FF920F931F93CF93DE
:101BD000DF938C01E62E0E94E81DF82E03301105DC
:101BE000E0F48CE0809FE001819FD00D1124C65667
:101BF000DB4F8A819B81039781F4CE80DF808881CF
:101C00000E94DD128F3F49F08A819B81039729F45E
:101C10008E819F81C816D90629F08F2D0E94E81D5C
:101C20008FEF43C08091C0049091C104892B21F4AF
:101C300087E592E00E94A90BE091C004F091C104F5
:101C4000828193819093C1048093C0041382128295
:101C50006E2DEE0C770B718360838CE0809FD0013A
:101C6000819FB00D1124A656BB4F1A96CD91DC91E1
:101C70001B97209729F41996FC93EE93189702C0AE
:101C8000FB83EA831B96FC93EE931A978CE0809F6C
:101C9000F001819FF00D1124E656FB4F81810E94D7
:101CA0007D118F2D0E94E81D81E0DF91CF911F9162
:101CB0000F91FF90EF90DF90CF9008951F93CF93F7
:101CC000DF93C82F162F0E94E81DD82FC33020F0B5
:101CD0000E94E81DCFEF11C02BE2C202C001112407
:101CE00080539F4FDC019296ED91FC919397612F69
:101CF0000995C82F8D2F0E94E81D8C2FDF91CF9161
:101D00001F910895CF93DF939CEF960F9B3060F562
:101D1000843050F5A82F082E000CBB0B97E28902E7
:101D2000F0011124E754FC4F20813181232BE1F095
:101D30006F5F94E0699FE0011124CE53DB4FEB818C
:101D4000AA0FBB1FAA0FBB1FAE53BB4F12966C93BB
:101D500012971396EC9394E0E902F0011124EE53EC
:101D6000FB4F82838B8301C08FEFDF91CF9108956A
:101D70009CEF980F9B30A8F494E08902F0011124A5
:101D8000EE53FB4F9281943064F40E94C10694E0BC
:101D90008902F0011124EE53FB4F9FEF938392834E
:101DA00008958FEF0895EF92FF920F931F93CF93B3
:101DB000DF93C82F8B017A010E94E81DD82FC33012
:101DC00020F00E94E81DCFEF12C02BE2C202C0013A
:101DD000112480539F4FDC015A96ED91FC915B9743
:101DE000A701B8010995C82F8D2F0E94E81D8C2FDF
:101DF000DF91CF911F910F91FF90EF900895843064
:101E0000C0F497E28902F0011124E754FC4F2081CD
:101E10003181232B71F022E030E031832083428135
:101E2000042E000C550B609102050E94E60881E02B
:101E300008958FEF0895E091B8038E2F0E2E000CB9
:101E4000990B27E2E202F0011124E754FC4F248DA4
:101E5000211104C023E030E03183208327E2289F52
:101E6000F001299FF00D1124E754FC4F838D148E4F
:101E70000895CF930E94E81DE091B80397E2E9022C
:101E8000F0011124E754FC4F948D913019F4C38D67
:101E9000148E01C0C1E00E94E81D8C2FCF910895DF
:101EA000DF92EF92FF920F931F93CF93DF9397FDF3
:101EB00034C0EC010E94E81DD82E8091B803E82EB2
:101EC000082E000CFF0897E28902800111240754B4
:101ED0001C4FF801948D91110DC0AE016091B402B8
:101EE0000E942809C82F8F3FA1F087E090E0F801F9
:101EF0009183808387E28E9DF0018F9DF00D1124E8
:101F0000E754FC4F848D882319F0C38D148E01C0D3
:101F1000CDEF8D2D0E94E81D01C0CFEF8C2FDF91FA
:101F2000CF911F910F91FF90EF90DF9008958091D6
:101F3000B803C82F082E000CDD0B37E28302F00136
:101F40001124E754FC4F208131812130310561F4A7
:101F500042816091020522E030E031832083042E2B
:101F6000000C550B0E94E608809102050E94B80EF5
:101F70008093B80327E2382F3203F0011124E7548D
:101F8000FC4F81E090E0918380839093B602809330
:101F9000B5022C9FF0012D9FF00D1124E754FC4F4A
:101FA000148213828130910519F0029789F01EC0C6
:101FB00080910305909104059C012F5F3F4F309362
:101FC000040520930305892B79F4109205050CC0B4
:101FD0008091030590910405181619063CF40197A9
:101FE000909304058093030581E008958FEF089591
:101FF000CF93843080F497E28902F0011124E754F2
:10200000FC4F208131812530310529F4C2810E94A5
:10201000FF0E8C2F01C08FEFCF9108950F931F9368
:10202000CF93DF93C82F8B010E94E81DD82FC330B8
:1020300020F00E94E81DCFEF11C02BE2C202C001C8
:10204000112480539F4FDC015E96ED91FC915F97C8
:10205000B8010995C82F8D2F0E94E81D8C2FDF91A4
:10206000CF911F910F910895CF93C82F0E94E81D23
:10207000C43048F494E0C902F0011124E95AFB4F3E
:102080009081911104C00E94E81D8FEF04C0C181AE
:102090000E94E81D8C2FCF9108950F931F93CF932B
:1020A0008C010E94E81D17FF04C00E94E81DCFEFBD
:1020B00025C0C091990224E030E091E09C0F94305B
:1020C0000CF090E044E0C402F0011124E95AFB4F07
:1020D000408141110BC09093990291E09083CF3FD2
:1020E00021F3128301830E94E81D08C021503109A9
:1020F00011F0C92FE2CF90939902D7CF8C2FCF91B7
:102100001F910F910895FF920F931F93CF93DF9329
:10211000C82F0E94E81DF82EC43048F484E0C8029D
:10212000E0011124C95ADB4F8881811105C08F2D30
:102130000E94E81D8FEF20C0FE0111928F0181E007
:1021400090E00E94D20F2396F801808191819C013A
:102150002F5F3F4F3183208397FF06C088810E9405
:10216000C1060E94FF0EF0CF82E090E00E94D20FE5
:102170008F2D0E94E81D81E0DF91CF911F910F917B
:10218000FF900895EF92FF920F931F93CF93DF93E9
:10219000C82F7B010E94E81D182FF7FC0CC0C4302B
:1021A00050F484E0C802E0011124FE01E95AFB4F1B
:1021B0008081811105C0812F0E94E81D8FEF19C019
:1021C000038181E090E00E94D20F802F0E94C1061F
:1021D0008F3F19F00E94FF0EF8CFC95ADB4FFA82E9
:1021E000E98282E090E00E94D20F812F0E94E81DD8
:1021F00081E0DF91CF911F910F91FF90EF900895B3
:102200001F93CF93DF93C82F162F0E94E81DD82F5E
:10221000C43068F487E2C802F0011124E754FC4F8F
:1022200080819181009719F0248D222329F08D2F30
:102230000E94E81D8FEF12C0138F21E0248F83309E
:10224000910529F0079731F48C2F0E9496128C2F5C
:102250000E94FF0E8D2F0E94E81D81E0DF91CF913B
:102260001F9108950E94A2011092C50087E68093F5
:10227000C40086E08093C20088E18093C100809111
:10228000C00085FFFCCF82E58093C6000895909141
:10229000C00095FFFCCF8093C60008958091C000D8
:1022A00087FFFCCF8091C6000895CF93DF93EC01A8
:1022B0008991882319F00E944711FACFDF91CF91BD
:1022C0000895CF93DF930E944E11C6E0D5E09E01A2
:1022D000265035408D3041F08A3031F0882321F08E
:1022E00089930E944E11F3CFF901EA5FFA4F1082F1
:1022F00086E095E0DF91CF910895CF93DF93C82FCB
:102300000E94E81DD82FC43048F484E0C802F001D0
:102310001124E95AFB4F8081811105C08D2F0E9445
:10232000E81D8FEF12C0818192819C012F5F3F4F8A
:102330003283218397FF05C083810E94B80E0E94DB
:10234000FF0E8D2F0E94E81D81E0DF91CF9108954F
:10235000CF92DF92FF920F931F93CF93DF93C82FFB
:102360008B010E94E81DF82EC43058F417FD09C0F7
:1023700084E0C802E0011124C95ADB4F8881811131
:1023800005C08F2D0E94E81D8FEF26C081E090E0F0
:102390000E94D20F6E01EFEFCE1ADE0A23960115CE
:1023A000110591F0F601808191819C012F5F3F4FD3
:1023B0003183208397FF05C088810E94B80E0E9458
:1023C000FF0E01501109EBCF82E090E00E94D20F86
:1023D0008F2D0E94E81D81E0DF91CF911F910F9119
:1023E000FF90DF90CF9008951F93CF93DF9397FDD9
:1023F00028C0EC01892B19F40E946C1320C00E94A4
:10240000E81D182FAE016091B4028091B8030E94BC
:102410002809C82F8F3F21F4812F0E94E81D12C088
:10242000E091B80387E2E802F0011124E754FC4F81
:1024300084E090E091838083812F0E94E81DC1E0B9
:1024400001C0CFEF8C2FDF91CF911F91089597FDA1
:102450000EC028EE33E0AC01429FC001439F900DB7
:10246000529F900D11240E94F41181E008958FEF86
:102470000895EF92FF920F931F93CF93DF93182F3E
:102480000E94E81D082F1430B0F4E12E012E000C3C
:10249000FF0887E21802E0011124C754DC4F88814D
:1024A0009981009741F0112331F09C0121503109AD
:1024B0002230310528F0802F0E94E81D8FEF16C0D2
:1024C000029719F4812F0E94A60685E090E0998377
:1024D000888387E28E9DF0018F9DF00D1124E754D3
:1024E000FC4FC281802F0E94E81D8C2FDF91CF917D
:1024F0001F910F91FF90EF900895809100009091AF
:1025000001009927009789F0029739F4E0E0F0E0A4
:10251000648182810E945E0E08C082E492E09F93F3
:102520008F930E94510A0F900F900895CF93DF93DD
:10253000C82F0E94E81DD82FC43098F4AC2F0C2E61
:10254000000CBB0B87E2C802F0011124E754FC4FDA
:1025500080819181009729F08430910539F00797A7
:1025600029F08D2F0E94E81D8FEF20C0AA0FBB1FFE
:10257000AA0FBB1FAE53BB4F1296EC911297E430DB
:1025800074F484E0E802F0011124EE53FB4F208143
:1025900031818D919C91820F931F918380838C2F29
:1025A0000E94A6068D2F0E94E81D81E0DF91CF9149
:1025B00008950E942F070C94A109CF93DF93D82F81
:1025C0000E94E81DC82FD43048F484E0D802F001FE
:1025D0001124E95AFB4F8081811105C08C2F0E9484
:1025E000E81D8FEF1DC081819281019792838183C5
:1025F00097FF12C08091B80397E28902D00111249D
:10260000A754BC4F26E030E011963C932E93599688
:10261000DC9363810E94820E8C2F0E94E81D81E072
:10262000DF91CF91089581E090E00E94D20F8091D8
:10263000B40294E08902F0011124EE53FB4FE281D1
:10264000E43084F494E0E902F0011124EE53FB4FEE
:1026500020813181121613062CF00E94B80E0E94C0
:10266000FF0EE5CF82E090E00C94D20FEF92FF9244
:102670000F931F93CF93DF93C82F8B017A010E9492
:10268000E81DD82FC33020F00E94E81DCFEF12C004
:102690002BE2C202C001112480539F4FDC015C96E3
:1026A000ED91FC915D97A701B8010995C82F8D2F79
:1026B0000E94E81D8C2FDF91CF911F910F91FF9009
:1026C000EF90089580E392E09F938F930E94510AC8
:1026D0000F900F900C94E81D0E94E81D0E94E81DC9
:1026E00081E008958F929F92AF92BF92CF92DF9236
:1026F000EF92FF920F931F93CF93DF93CDB7DEB787
:102700002B970FB6F894DEBF0FBECDBF6B017C01D7
:102710008A0119822AE030E040E050E00E943A1E2F
:10272000F7FE04C080E3861B682F01C0605D6A83EA
:10273000F7FC05C02AE030E040E050E004C026EF9E
:102740003FEF4FEF5FEFC701B6010E943A1E6E01E7
:1027500083E0C80ED11C7E01ECE0EE0EF11C8AE095
:10276000882E912CA12CB12CB901CA01A50194018C
:102770000E943A1E605DF60161936F01EE15FF0540
:1027800099F78AE090E0F70122917F01203311F45C
:102790000197F9CF009711F481E090E001969E0136
:1027A0002F5F3F4FF901E80FF91FD80182918D93F8
:1027B0002E173F07D9F72B960FB6F894DEBF0FBE42
:1027C000CDBFDF91CF911F910F91FF90EF90DF90E0
:1027D000CF90BF90AF909F908F900895CF93DF934D
:1027E000CDB7DEB72C970FB6F894DEBF0FBECDBFC6
:1027F0001982DE011296FE013D96262F2770205D7C
:102800002D9323E095958795779567952A95D1F730
:10281000AE17BF0791F78C8583738C878BE090E0B0
:102820002291203311F40197FBCF009711F481E03E
:1028300090E001969E012F5F3F4FF901E80FF91FCD
:10284000DA0182918D93E217F307D9F72C960FB630
:10285000F894DEBF0FBECDBFDF91CF910895EF9208
:10286000FF920F931F93CF93DF93CDB7DEB72997D6
:102870000FB6F894DEBF0FBECDBF1982DE011296EF
:102880007E012AE0E20EF11C8B019C010F701127E2
:1028900022273327015A1D4FF80120812D9324E070
:1028A00095958795779567952A95D1F7AE15BF05CC
:1028B00059F788E090E0F70122917F01203311F46D
:1028C0000197F9CF009711F481E090E001969E0105
:1028D0002F5F3F4FF901E80FF91FDA0182918D93C5
:1028E0002E173F07D9F729960FB6F894DEBF0FBE13
:1028F000CDBFDF91CF911F910F91FF90EF90089581
:10290000EF92FF920F931F93CF93DF93CDB7DEB774
:1029100029970FB6F894DEBF0FBECDBF1982DE0136
:1029200012967E012AE0E20EF11C8B019C010F70D1
:1029300011272227332700591D4FF80120812D939D
:1029400024E095958795779567952A95D1F7AE15EB
:10295000BF0559F788E090E0F70122917F0120330D
:1029600011F40197F9CF009711F481E090E00196FE
:102970009E012F5F3F4FF901E80FF91FDA018291A5
:102980008D932E173F07D9F729960FB6F894DEBF1F
:102990000FBECDBFDF91CF911F910F91FF90EF90B0
:1029A0000895CF93DF93CDB7DEB7A3970FB6F89412
:1029B000DEBF0FBECDBF1982DE011296FE01B296B8
:1029C00060FF02C021E301C020E32D939595879518
:1029D00077956795AE17BF0799F780E290E022914F
:1029E000203311F40197FBCF009711F481E090E0C0
:1029F00001969E012F5F3F4FF901E80FF91FDA01A1
:102A000082918D932E173F07D9F7A3960FB6F894AE
:102A1000DEBF0FBECDBFDF91CF9108952F923F92C1
:102A20004F925F926F927F928F929F92AF92BF92DE
:102A3000CF92DF92EF92FF920F931F93CF93DF938A
:102A4000CDB7DEB769970FB6F894DEBF0FBECDBF26
:102A50006C018B011A017601FFEFEF1AFF0AD60114
:102A60008C91082E000C990B8532910539F0009756
:102A700009F4F9C1F10109956701EDCF1196BC91F7
:102A8000BD8BB53241F4E2E0CE0ED11C85E290E080
:102A9000F1010995E0CFFD89FD3221F4760132E0A4
:102AA000E30EF11CD7014C90B0E34B1204C0EFEFE2
:102AB000EE1AFE0A02C060E2462ED7018C918A32DD
:102AC00019F0612C712C08C0F80160807180F70149
:102AD00031960E5F1F4F15C0FD012D9180ED820FC5
:102AE0008A3078F4FAE0F69DC001F79D900D11242C
:102AF0003C01620E711C27FD7A9430E3631A710861
:102B0000EBCF80818E3221F581818A3229F0DF017D
:102B10001196A12CB12C07C0D801AD90BC90329673
:102B20000E5F1F4F17C0FD012D9180ED820F8A307F
:102B300088F4EAE0EA9DC001EB9D900D11245C0150
:102B4000A20EB11C27FDBA94F0E3AF1AB108EBCF87
:102B5000A12CB12C6F013FEFC31AD30A9081292F0A
:102B6000092E000C330B2115310529F485E290E084
:102B7000F101099578C1963609F4EFC0FCF492365C
:102B800009F4CDC0ACF4983409F493C0983509F039
:102B9000DCC07801F4E0EF0EF11CD8016D917D915D
:102BA0008D919C91AE014F5F5F4F0E948014C5C014
:102BB000933689F1943609F44CC0C7C09337B9F104
:102BC000ACF4983609F48EC09F3609F0BEC0780187
:102BD000F4E0EF0EF11CD8016D917D918D919C91E7
:102BE000AE014F5F5F4F0E94EE13A7C0953709F407
:102BF00046C0983709F0A9C07801F4E0EF0EF11C47
:102C0000D8016D917D918D919C91AE014F5F5F4F89
:102C10000E942F1492C0D8018C9189831A820E5F72
:102C20001F4F512CA12CB12C50E2452E8AC0C80157
:102C30000296D801ED90FC908C01512C40E2442E7C
:102C4000E114F10409F08DC031E8E32E32E0F32EF7
:102C500088C07801B4E0EB0EF11CF801608171814D
:102C60008281938197FF03C02DE2522E01C0512C27
:102C7000AE014F5F5F4F0E94721387016AC07801F7
:102C800094E0E90EF11CD8016D917D918D919C919C
:102C900010E097FF05C07A5C8A499B431F5FF9CF1C
:102CA000AE014F5F5F4F0E9472138981180F198325
:102CB00044C0D8016D917D918D919C91AE014F5F83
:102CC0005F4F0E9480147801B8E0EB0EF11CF80110
:102CD0006481758186819781AE01475F5F4F0E9455
:102CE000801418C0D8016D917D918D919C91AE0199
:102CF0004F5F5F4F0E942F147801B8E0EB0EF11C7C
:102D0000F8016481758186819781AE01475F5F4FCD
:102D10000E942F148701512CA12CB12C1AC07801CC
:102D200094E0E90EF11CD8016D917D918D919C91FB
:102D3000AE014F5F5F4F0E94D1148701512CA12C2F
:102D4000B12CFE0131967F010CC0C901F10109953A
:102D5000512CCE0101967C0104C0512CDE0111964C
:102D60007D01FF8AEE8AF7014F018E189F0881913D
:102D70008111FACFB1E56B16710410F0612C712C42
:102D8000C50101978035910520F06114710441F46B
:102D900013C0A814B9040CF445016114710419F0AE
:102DA0006818790802C0612C712CEDE25E1256C0E1
:102DB000F1E06F1A710805C03DE2612C712C5312CD
:102DC0004DC080E3481204C08DE290E0F101099506
:102DD000FD89FD32B1F0A12CB12C842D042C000C06
:102DE000990B998F888FA614B70444F4888D998D18
:102DF000F1010995FFEFAF1ABF0AF5CF3DE253127B
:102E000007C080E2481204C08DE290E0F10109950C
:102E1000E80CF91C8E899F89E816F90659F0AE89ED
:102E2000BF898D91BF8BAE8B082E000C990BF101E1
:102E30000995F0CF9D899D3209F00DCEE12CF12C42
:102E4000042C000C5508E614F7040CF004CEC20163
:102E5000F1010995FFEFEF1AFF0AF5CF3D893D32E9
:102E600009F0B9CFD5CF69960FB6F894DEBF0FBE83
:102E7000CDBFDF91CF911F910F91FF90EF90DF9029
:102E8000CF90BF90AF909F908F907F906F905F900A
:102E90004F903F902F9008952F923F924F925F92C4
:102EA0006F927F928F929F92AF92BF92CF92DF925A
:102EB000EF92FF920F931F93CF93DF93CDB7DEB7BF
:102EC000C155D1090FB6F894DEBF0FBECDBFFC01CE
:102ED00062967FAF6EAF62972B965FAF4EAF2B9728
:102EE00060963FAF2EAF6097680129961FAE1EAE69
:102EF0002997AE014F5F5F4F23965FAF4EAF239789
:102F0000CE01029625969FAF8EAF25971F019FEFAA
:102F1000291A390A00810B303CF409300CF03AC20E
:102F2000002309F462C24BC2003209F433C20532F5
:102F300009F045C21F01A2E02A0E311C0181002EBA
:102F4000000C110B0532110509F43CC20A321105BF
:102F500081F06296EEADFFAD62972796FFAFEEAFC0
:102F60002797AF014E5F5F4F62965FAF4EAF62979C
:102F70000CC01F0153E0250E311C0281002E000CF5
:102F8000110B27961FAE1EAE2797F101412C512C35
:102F90001F01D801AE5ABE4F8C9182FF13C0AAE028
:102FA000A49DC001A59D900D1124080F191F280193
:102FB000B0E34B1A51083196D1010C91002E000C50
:102FC000110BE6CF4114510421F460E3462E65E76E
:102FD000562E0C36110561F40081002E000C110BE9
:102FE000AF014F5F5F4F1A0152E0652E712C4DC04B
:102FF0000836110551F40081002E000C110BCF0191
:1030000001961C01612C712C40C00B351105D1F5C6
:1030100080818E3539F41F019FEF291A390A41E06A
:1030200050E002C040E050E0E7E1F1E0808141156E
:10303000510511F08D7F01C0826080833196A1E03F
:10304000E739FA0799F7B1016F5F7F4FF1012081EE
:10305000822F022E000C990B2F772D3591F09C01B9
:103060002F5F3F4FFC01E95EFE4F80814115510506
:1030700011F0826001C08D7F8083232B19F01B012A
:10308000E2CF1B0166246394712CF801EE5AFE4FC7
:10309000808180FF05C0005E1F4F32E0632E712CDF
:1030A0000115110509F46DC10336110509F4A4C118
:1030B0000337110509F405C20B35110509F410C1D8
:1030C0000F36110541F00837110551F0BAE02E9680
:1030D000BFAF2E9709C0E8E02E96EFAF2E9704C041
:1030E000F0E12E96FFAF2E97B701C6012B96EEADFD
:1030F000FFAD2B970995E82F8032B1F387EF8E0F44
:10310000823090F3820101501109ED3299F4E98384
:10311000B701C6012B96EEADFFAD2B970995E82FB1
:10312000280101E010E024969FAD249725968FADED
:10313000259713C0EB3249F42801B701C6012B963D
:10314000EEADFFAD2B970995E82F00E010E0229639
:103150009FAD229723968FAD23972C969FAF2C97E8
:103160002D968FAF2D97812C912C5401F1E04F1AA1
:10317000510857FC68C0AE2F0E2E000CBB0BAE5A88
:10318000BE4F8C9182FD06C02E96FFAD2E97F0317A
:1031900009F059C08E2F8F7D8154863008F053C0BE
:1031A0002E962FAD2E97283051F4B501A401B3E02F
:1031B000440F551F661F771FBA95D1F71BC02E9677
:1031C0004FAD2E974A3069F4A5E0B0E0A501940117
:1031D0000E94591EAB01BC01440F551F661F771F8B
:1031E00009C0B501A401F4E0440F551F661F771F05
:1031F000FA95D1F780ED8E0F8A3040F08FE98E0F6F
:10320000863010F489EA01C089EC8E0F082E000C7C
:10321000990BAA0BBB0B4C015D01840E951EA61EDB
:10322000B71E2D96AEADBFAD2D97ED932D96BFAFCA
:10323000AEAF2D97B701C6012B96EEADFFAD2B9724
:103240000995E82F93CF012B41F0B094A09490946E
:103250008094811C911CA11CB11CEE3F51F0B70160
:10326000C6016096EEADFFAD6097099520E030E0B5
:1032700002C021E030E027964EAD5FAD27974115A3
:10328000510509F460C023968EAD9FAD23972D960E
:10329000AEADBFAD2D978A179B0709F454C01C92A1
:1032A000B1E06B16710431F0E2E06E16710459F072
:1032B000DA0104C02796AEADBFAD2797ED91FC9122
:1032C000918280820AC02796AEADBFAD2797ED915F
:1032D000FC9180829182A282B38281E090E035C02D
:1032E00027964EAD5FAD2797452B09F4E7C027968B
:1032F000AEADBFAD27976D907C900336110509F4F4
:1033000084C00337110509F48FC0B701C6012B969D
:10331000EEADFFAD2B9709950336110509F492C068
:103320000B35110509F0D7C022E0822E912C5301F4
:103330008E3FFFEF9F0709F088C021E030E0A11425
:10334000B10409F0A3C080E090E0892B81F02796BA
:10335000EEADFFAD2797EF2B51F029964EAD5FAD47
:1033600029974F5F5F4F29965FAF4EAF2997232B69
:1033700011F4F101CBCD29968EAD9FAD2997892B04
:10338000A1F58FEF9FEFABC09C012950310922308E
:10339000310558F4B701C6012B96EEADFFAD2B9762
:1033A00009958032910581F7F5CF029611F3B701A7
:1033B000C6016096EEADFFAD60970995DACF002E9D
:1033C000000C110BB701C6012B96EEADFFAD2B978C
:1033D00009950817190769F2029699F2B701C60113
:1033E0006096EEADFFAD6097099528968FAD289752
:1033F00029969FAD299773C02796AEADBFAD27978D
:10340000AB2B09F074CF612C712CB0E34B16B5E7F0
:103410005B0609F07ACF44244394512C76CF8E3F3B
:10342000EFEF9E0709F457C0B701C6012B96EEAD2A
:10343000FFAD2B970995FC01E95EFE4F208120FD31
:10344000EECF49C0812C912C72CFFC01E95EFE4F7A
:103450002081022E000C330B28213921232B09F562
:10346000A114B10429F0D5018C93F50131965F01C7
:10347000F1E04F1A510814141504ECF4B701C60119
:103480002B96EEADFFAD2B97099552CF6A147B04B6
:1034900009F459CF0336110509F41FCFD5011C9249
:1034A0001CCF141415043CF4B701C6016096EEADB0
:1034B000FFAD6097099520E030E041CF612C712C81
:1034C00024CF27968EAD9FAD2797892B09F00FCF7C
:1034D000612C712CA9CF88248394912C28CFCF5AAA
:1034E000DF4F0FB6F894DEBF0FBECDBFDF91CF9197
:1034F0001F910F91FF90EF90DF90CF90BF90AF9012
:103500009F908F907F906F905F904F903F902F9003
:10351000089520E030E040E050E060E070E081E0BD
:1035200090E00E94891A0895462F660F550B20E0FF
:1035300030E0BC0182E090E00E94891A089520E00A
:1035400030E0261737074CF4FC014191CF012F5F83
:103550003F4F4111F6CFC90108958FEF9FEF0895B6
:10356000CF92DF92EF92FF920F931F93CF93DF934F
:103570006C017B01D42F0E94E81DC82F68E070E029
:10358000C6010E949F1A8C0168E070E0C7010E948A
:103590009F1A0F3F2FEF1207C9F08F3F2FEF9207AF
:1035A000A9F0D33098F420916A0530916B0523304F
:1035B000310564F4F60141E1429FB001439F700D73
:1035C000112464597A4F40E050E005C08C2F0E94CE
:1035D000E81D8FEF2DC04017510744F4D190DB0157
:1035E000A40FB51FDC924F5F5F4FF5CFF70140E0AE
:1035F00050E0481759074CF41191DB01A40FB51F97
:1036000018961C934F5F5F4FF4CF81E1829FF001CA
:10361000839FF00D1124E459FA4FD08B2F5F3F4F59
:1036200030936B0520936A058C2F0E94E81D81E082
:10363000DF91CF911F910F91FF90EF90DF90CF908E
:1036400008959F92AF92BF92CF92DF92EF92FF9236
:103650000F931F93CF93DF93CDB7DEB72E970FB69F
:10366000F894DEBF0FBECDBF86E0E2E9F2E0DE01F6
:10367000199601900D928A95E1F710926B051092C0
:103680006A0504ED10E083E0982ECE0101967C01DE
:103690009CE0C92E92E0D92E27EEA22E21E0B22E78
:1036A000CE010996F7019F012E193F09DC014D91CA
:1036B000CD01DF014D93442311F0FD01F4CFD8017A
:1036C0002F5F3F4F2830310554F48D919FEB980FB9
:1036D0009A3108F4805E81938111F2CF08C02830BE
:1036E000310529F01F930F93BF92AF920EC0F801DE
:1036F000349740816FED71E0C7010E94B01A8F3F8F
:1037000051F41F930F93DF92CF920E94510A0F90B2
:103710000F900F900F909A94055D1F4F9110C0CF9E
:1037200041E06FED71E088E892E00E94B01A4FEF3F
:103730006FED71E082E992E00E94B01A81E02E966E
:103740000FB6F894DEBF0FBECDBFDF91CF911F91B2
:103750000F91FF90EF90DF90CF90BF90AF909F9030
:1037600008959F92AF92BF92CF92DF92EF92FF9215
:103770000F931F93CF93DF93A0916A05B0916B05D0
:103780002CE635E0E12CF12CEA16FB06A4F48C01C2
:10379000F9015801A81AB90AE8014191442369F0D6
:1037A0000F5F1F4F58814517A1F34FEFE41AF40A3A
:1037B0002F5E3F4FE9CF8FEF3BC06B0168E070E0B9
:1037C0000E949F1A982E81E18E9DE0018F9DD00D61
:1037D0001124CC58DA4F68E070E0CE010E949F1AA5
:1037E000292D990C330B2A193B09AC014150510981
:1037F000420F531F49305105F4F6F6010197181690
:1038000019061CF449914193F9CF121613063CF4A2
:10381000D8018D918D01819321503109F6CF81E13D
:103820008E9DF0018F9DF00D1124E459FA4F80898F
:10383000DF91CF911F910F91FF90EF90DF90CF908C
:10384000BF90AF909F900895FB01DC019D01281B64
:10385000390B2417350734F421912D932111F6CF1C
:1038600081E008958FEF0895DF92EF92FF920F931A
:103870001F93CF93DF93CDB7DEB728970FB6F89499
:10388000DEBF0FBECDBF7B01D42E48E050E0BC01AF
:10389000CE0101960E94241C8F3FD1F000E010E081
:1038A00010C0B701CE0101960E94B11B8D1111C04D
:1038B00048E050E0B701CE0101960E94241C0F5F42
:1038C0001F4F80916A0590916B05081719074CF3FB
:1038D0008FEF28960FB6F894DEBF0FBECDBFDF91F5
:1038E000CF911F910F91FF90EF90DF9008950F936C
:1038F0001F93CF93DF93CDB7DEB728970FB6F89419
:10390000DEBF0FBECDBFFC01CB018A014081BE01ED
:103910006F5F7F4F0E94341C8F3F39F0A801BE01BA
:103920006F5F7F4F0E947D0B01C08FEF28960FB60F
:10393000F894DEBF0FBECDBFDF91CF911F910F91E5
:1039400008954F925F926F927F928F929F92AF9263
:10395000BF92CF92DF92EF92FF920F931F93CF937C
:10396000DF93C82F6B01542E452E590147010E9449
:10397000E81DF82E1C141D040CF052C0B7FC50C0FA
:103980006C2E0C2E000C770887E2C802F00111247F
:10399000E754FC4F87819085C581D681C81BD90B20
:1039A0002596CC7FC6010196880F991FE52DF42D31
:1039B000DE0140E050E021913191280F391F2C0F9A
:1039C0003D1F2D933D934F5F5F4FC416D50699F76A
:1039D00002978C0F9D1FFC0111921192CF01A5013E
:1039E000B8010E94B31E87E2869DF001879DF00D0D
:1039F0001124E754FC4F2581368183819481FC0199
:103A00008217930768F402964081518184169506C7
:103A1000B1F7D183C0838F2D0E94E81D81E004C0DF
:103A20008F2D0E94E81D8FEFDF91CF911F910F9195
:103A3000FF90EF90DF90CF90BF90AF909F908F90CE
:103A40007F906F905F904F9008952F923F924F928A
:103A50005F926F927F928F929F92AF92BF92CF921E
:103A6000DF92EF92FF920F931F93CF93DF93290181
:103A7000E7017801A0E0B0E060E070E066246394C4
:103A8000712C32E0832E912CE3E0AE2EB12CFC01A0
:103A90002081211105C0F20171836083CD0183C0B3
:103AA0002A30C9F3A032B105C9F413C0B982A88283
:103AB0002732E1F56F018F01041B150B0196BC0144
:103AC00061507109FB016081261709F462C06A30F8
:103AD00081F58FEF9FEF67C0293039F48C01FC012D
:103AE0002191CF012032C1F7F9CF2A30A1F2222350
:103AF00091F2F701619371937F01FA01E60FF71FCD
:103B00002C3339F02E3341F0263281F61982188297
:103B100005C07982688202C0998288822083FB0175
:103B20003196E40FF51F6E5F7F4F39C0223231F4BA
:103B3000C1CF662371F2F6016193BCCF20831C01D3
:103B40006B01FFEFCF1ADF0AC40ED51E9B01201BAD
:103B5000310B8901020D131DC101F10161911F019A
:103B60006A30B9F06623A9F0762F7D7F7C3309F4A3
:103B7000B0CF603271F0693061F0663251F0673277
:103B800009F4A7CF623209F4A4CFF60161936F0163
:103B9000E0CFB8016F5F7F4FFA01E00FF11F108295
:103BA0002296119674CFDF91CF911F910F91FF90C4
:103BB000EF90DF90CF90BF90AF909F908F907F90CD
:103BC0006F905F904F903F902F90089581E00895FF
:103BD0000E94E1070E94390F1F921F921F9281E0FD
:103BE0008F9380E192E09F938F9382E38F9380E1A4
:103BF0008F931F9286EE9DE19F938F930E94B00258
:103C00000E94F80F8DB79EB70B960FB6F8949EBF23
:103C10000FBE8DBF8CE7E82E82E0F82EBB24B39454
:103C200000E112E094E1C92E20E1D22EC6EEDDE1E2
:103C30000E941B0F88EC90E00E94F411FF92EF921B
:103C40000E94510A1F921F921F92BF921F930F93BF
:103C5000CF92DF921F92DF93CF930E94B0020E9417
:103C6000F80F8DB79EB70D960FB6F8949EBF0FBE96
:103C70008DBFDECF052E97FB1EF400940E94511ECF
:103C800057FD07D00E94641E07FC03D04EF40C942D
:103C9000511E50954095309521953F4F4F4F5F4FA6
:103CA000089590958095709561957F4F8F4F9F4FA8
:103CB00008950E94861EA59F900DB49F900DA49F0D
:103CC000800D911D11240895A1E21A2EAA1BBB1B81
:103CD000FD010DC0AA1FBB1FEE1FFF1FA217B307D8
:103CE000E407F50720F0A21BB30BE40BF50B661FEE
:103CF000771F881F991F1A9469F7609570958095B2
:103D000090959B01AC01BD01CF010895A29FB00128
:103D1000B39FC001A39F700D811D1124911DB29FFF
:103D2000700D811D1124911D0895FC01882799278C
:103D3000E89421912032E9F3293010F02E30C8F3B5
:103D40002B3241F02D3239F4689404C00E94E01EF9
:103D5000820F911D219120532A30C0F31EF49095BB
:103D600081959F4F0895FB01DC0102C001900D92E7
:103D700041505040D8F70895DC0101C06D93415087
:103D80005040E0F70895FB01DC014150504030F015
:103D90008D910190801919F40020B9F7881B990BB7
:103DA0000895FB01DC014150504048F001900D9214
:103DB0000020C9F701C01D9241505040E0F708951E
:103DC0007AE0979F902D879F802D910D1124089563
:103DD000A0E0B0E0EEEEFEE10C949B21AE01475F67
:103DE0005F4F6F8178858D819E810E94FA1EE2E08F
:103DF0000C94B721ABE0B0E0E0E0FFE10C948B2144
:103E00006C017B018A01FC0117821682838181FF8C
:103E1000CCC1CE0101963C01F6019381F70193FDDF
:103E2000859193FF81917F01882309F4BAC185327E
:103E300039F493FD859193FF81917F01853229F4B7
:103E4000B60190E00E94F120E7CF912C212C312C7B
:103E5000FFE1F315D8F08B3279F038F4803279F045
:103E60008332A1F4232D20611DC08D3261F0803397
:103E700069F4232D216016C0832D8260382EE32D36
:103E8000E4603E2E2AC0F32DF8601DC037FC2DC023
:103E900020ED280F2A3040F08E32B9F436FC81C173
:103EA000232D2064322E19C036FE06C08AE0989E6B
:103EB000200D1124922E11C0EAE02E9E200D112417
:103EC000222EF32DF0623F2E08C08C3621F4832D74
:103ED0008068382E02C0883641F4F70193FD859141
:103EE00093FF81917F018111B3CF982F9F7D9554CE
:103EF000933028F40C5F1F4F9FE399830DC08336E6
:103F000031F0833771F0833509F059C021C0F801D1
:103F1000808189830E5F1F4F88248394912C5301E5
:103F200013C02801F2E04F0E511CF801A080B180AF
:103F300036FE03C0692D70E002C06FEF7FEFC50150
:103F40000E94E6204C018201F32DFF773F2E16C020
:103F5000280122E0420E511CF801A080B18036FEFB
:103F600003C0692D70E002C06FEF7FEFC5010E94B2
:103F7000DB204C01F32DF0683F2E820133FC1BC087
:103F8000822D90E088169906B0F4B60180E290E0A8
:103F90000E94F1202A94F4CFF50137FC859137FE79
:103FA00081915F01B60190E00E94F12021102A94D6
:103FB00021E0821A91088114910471F7E8C08436D7
:103FC00011F0893641F5F80137FE07C06081718133
:103FD000828193810C5F1F4F08C060817181072E21
:103FE000000C880B990B0E5F1F4FF32DFF763F2EB1
:103FF00097FF09C090958095709561957F4F8F4F81
:104000009F4FF0683F2E2AE030E0A3010E942D214F
:10401000882E861845C0853731F4232D2F7EB22E89
:104020002AE030E025C0932D997FB92E8F36C1F05C
:1040300018F4883579F0B5C0803719F0883721F049
:10404000B0C0E92FE061BE2EB4FE0DC0FB2DF460C0
:10405000BF2E09C034FE0AC0292F2660B22E06C02A
:1040600028E030E005C020E130E002C020E132E08D
:10407000F801B7FE07C060817181828193810C5F76
:104080001F4F06C06081718180E090E00E5F1F4F7E
:10409000A3010E942D21882E8618FB2DFF773F2E2D
:1040A00036FE0DC0232D2E7FA22E891458F434FE27
:1040B0000BC032FC09C0832D8E7EA82E05C0B82C03
:1040C000A32C03C0B82C01C0B92CA4FE0FC0FE0164
:1040D000E80DF11D8081803321F49A2D997EA92E5F
:1040E00009C0A2FE06C0B394B39404C08A2D86789A
:1040F00009F0B394A3FC11C0A0FE06C0B21488F46A
:10410000280C922C9B180EC0B21460F4B60180E209
:1041100090E00E94F120B394F7CFB21418F42B185A
:1041200002C0982C212CA4FE10C0B60180E390E0C0
:104130000E94F120A2FE17C0A1FC03C088E790E016
:1041400002C088E590E0B6010CC08A2D867859F04F
:10415000A1FE02C08BE201C080E2A7FC8DE2B601A5
:1041600090E00E94F120891438F4B60180E390E0D9
:104170000E94F1209A94F7CF8A94F301E80DF11D83
:104180008081B60190E00E94F1208110F5CF2220BD
:1041900009F442CEB60180E290E00E94F1202A9418
:1041A000F6CFF6018681978102C08FEF9FEF2B96A5
:1041B000E2E10C94A721FC010590615070400110D0
:1041C000D8F7809590958E0F9F1F0895FC01615040
:1041D000704001900110D8F7809590958E0F9F1F29
:1041E00008950F931F93CF93DF93FB01238121FD4C
:1041F00003C08FEF9FEF2CC022FF16C0468157816E
:10420000248135814217530744F4A081B1819D0177
:104210002F5F3F4F318320838C93268137812F5F1F
:104220003F4F3783268314C08B01EC01FB010084D0
:10423000F185E02D0995892BE1F6D80116968D912F
:104240009C911797019617969C938E931697CE0183
:10425000DF91CF911F910F910895FA01AA2728307D
:1042600051F1203181F1E8946F936E7F6E5F7F4F43
:104270008F4F9F4FAF4FB1E03ED0B4E03CD0670FBF
:10428000781F891F9A1FA11D680F791F8A1F911D12
:10429000A11D6A0F711D811D911DA11D20D009F462
:1042A00068943F912AE0269F11243019305D3193A4
:1042B000DEF6CF010895462F4770405D4193B3E08D
:1042C0000FD0C9F7F6CF462F4F70405D4A3318F034
:1042D000495D31FD4052419302D0A9F7EACFB4E0E5
:1042E000A6959795879577956795BA95C9F700979D
:1042F0006105710508959B01AC010A2E069457953E
:10430000479537952795BA95C9F7620F731F841F94
:10431000951FA01D08952F923F924F925F926F922A
:104320007F928F929F92AF92BF92CF92DF92EF9245
:10433000FF920F931F93CF93DF93CDB7DEB7CA1BC6
:10434000DB0B0FB6F894DEBF0FBECDBF09942A88F1
:10435000398848885F846E847D848C849B84AA8499
:10436000B984C884DF80EE80FD800C811B81AA8126
:10437000B981CE0FD11D0FB6F894DEBF0FBECDBFF1
:04438000ED010895AE
:1043840058696E7520415652206C6F6164696E677E
:104394002E2E2E0A0004520000000000000000002F
:1043A4000101000000000000000000000000000007
:1043B40000000000000000010000000000000000F8
:1043C40000000000000000000000000000000000E9
:1043D40000000000000000000000000000000000D9
:1043E40000000000000000000000000000000000C9
:1043F40000000000000000000000000000000000B9
:1044040000000000000000000000000000000000A8
:10441400000000000000004D61696E00253038780E
:10442400200025303278200020202000207C002528
:104434006300554E4B4E4F574E004D61696E2050F0
:10444400726F6365737300201B5B306D1B5B324AB4
:104454001B5B3B480052616661000A25730A0A002F
:1044640020202020202020202020205B3078253090
:10447400385820746F203078253038585D0A004E43
:10448400756C6C2070726F636573730025730A001A
:104494007368656C6C000A0A0D70616E69633A207A
:1044A40025730A0A007074696E6974202D20696E80
:1044B40073756666696369656E74206D656D6F7288
:1044C400790053797374656D2063616C6C206E6F31
:1044D4007420696D706C656D656E7465640A003076
:1044E4003132333435363738396162636465660096
:1044F4003031323334353637383941424344454616
:1045040000286E756C6C29002F6465762F6E756CAF
:084514006C002F6465762F0096
:00000001FF
