:100000002BC4000047C4000045C4000043C40000E6
:1000100041C400003FC400003DC400003BC40000D8
:1000200039C4000037C4000035C4000033C40000E8
:1000300031C400002FC40000B1C700002BC4000071
:1000400029C4000027C400003AC7000023C40000F0
:1000500021C400001FC400001DC400001BC4000018
:1000600019C4000017C400000C942C040C944A041A
:100070000C944A040C944A040C944A040C944A04C8
:100080000C944A040C944A040C944A040C944A04B8
:100090000C944A040C944A040C944A040C944A04A8
:1000A0000C94CE070C944A040C944A040C944A0411
:1000B0000C945F070C944A040C944A040C944A0470
:1000C0000C944A040C944A040C944A040C944A0478
:1000D0009C19B019BA19C619F119D019DC19E71908
:1000E000C425CB25D225D925E025E725CB25A12A76
:1000F000F827032830280028A829352AD4274128A2
:100100007329C229C328E7286228C12A782A5528DA
:100110004D2B0028342BC12AC32800280028002892
:100120005528432BF827352A000000000000000066
:10013000434F4E534F4C450000007D1C570E570E49
:10014000571DC91D550EF719F41C881900386B1C72
:100150003501000000000000004E554C4C4445564F
:10016000000000570E570E570E570E570E550E57DC
:100170000E570E550E0000550E0002000000000044
:1001800000004E414D45535041434500A5176019AD
:10019000550E550E550E550E550E550E550E0000AA
:1001A000550E006E616D696E69742028646576690C
:1001B000636573293A0D0A004552524F5220474554
:1001C0005453544B2025730A006E616D6573706142
:1001D00063653A20646576696365206E616D6520AC
:1001E000257320746F6F206C6F6E670D0A006E614F
:1001F0006D6573706163653A2063616E6E6F742024
:100200006D6F756E742025640D0A000A0A416C6CCE
:1002100020757365722070726F63657373657320E8
:100220006861766520636F6D706C657465642E0A15
:100230000A000A57656C636F6D6520746F205869FA
:100240006E75210A0A0D0958696E75204F532043B7
:100250006F707972696768742028632920323031A1
:10026000322C20323031350A0D09446F75676C61CC
:100270007320452E20436F6D657220616E642043AC
:1002800052432050726573732C20496E632E0A0A04
:100290000D0958696E75204F5320666F72204156C4
:1002A000522061746D656761333238702076302E6C
:1002B000312028632920323032300A0D095261661C
:1002C00061656C2049676E6163696F205A75726958
:1002D0007461203C726166614066692E756E636F61
:1002E0006D612E6564752E61723E0A0A0D000A0D5D
:1002F000436F6D6D616E64733A0A0A0D00000190E0
:10030000019001800080008000C80080002C0180E6
:100310000040008000000100012C01000100B2300B
:1003200000B52E00512B01571F00D53100DE2F00E4
:100330002F3200D03101753000DF2F01502D012602
:100340003100952D006A2D00473000972C5205444E
:100350000527051B050705FB04CA0497046E044521
:100360000429040704D803A50383036D035B6D6FA1
:100370006E5D2079656172203A2063616C656E6400
:10038000617200702076203A20736574207468656D
:1003900020706F7274207020776974682076616CA9
:1003A00075652076005B4D4D2F44442F59592048E8
:1003B000483A4D4D3A53535D203A20736574206F8F
:1003C00072206765742074686520646174652061BB
:1003D0006E642074696D65005B617267202E2E2E3D
:1003E0005D203A20777269746520617267756D656A
:1003F0006E747320746F207374616E646172642014
:100400006F7574707574003A20646973706C6179EB
:100410002063757272656E742070726F636573739A
:100420006573207461626C65003A20636C6561726B
:1004300020746865207465726D696E616C207363E9
:100440007265656E003A20646973706C6179206131
:100450006D6F756E74206F66206672656520616EC3
:10046000642075736564206D656D6F7279006E2010
:100470003A206B696C6C20287465726D696E6174CA
:1004800065732920746865206E20284944292070EE
:10049000726F63657373003A2072657365742074BC
:1004A00068652058696E752073797374656D207363
:1004B000772E2054484953204953204E4F542061F1
:1004C000206877207265736574003A2074656C6CDF
:1004D00020686F77206C6F6E67207468652058699C
:1004E0006E752073797374656D2068617320626521
:1004F000656E2072756E6E696E67003A20666F7267
:1005000020283B3B293B006E203A20736C656570C8
:10051000206E207365636F6E6473003A207468699F
:10052000732068656C70003A204241534943206C47
:10053000616E677561676520696E7465727072655A
:10054000746572003A207465787420656469746F0C
:1005500072003A20646973706C6179205352414D86
:10056000206D656D6F727920636F6E74656E747344
:1005700000E505DE05D805D305CD05C505BE05B7E3
:1005800005B205AD05A705A4059F059A059505913A
:100590000563616C006770696F0064617465006574
:1005A00063686F00707300636C65617200667265EA
:1005B00065006B696C6C007265626F6F74007570BA
:1005C00074696D6500666F726576657200736C653F
:1005D00065700068656C70006261736963006564D2
:1005E00069746F72006D656D64756D70001B5B449E
:1005F000201B5B4400556E696D706C656D656E7493
:10060000656400617661696C61626C652056415277
:10061000533A2041202D204A0020627974657320CE
:10062000667265652E000A57656C636F6D65207490
:100630006F2054696E79426173696320506C7573E1
:1006400020696E7465727072657465722076302EE2
:10065000313500536F7272792100486F773F005730
:100660006861743F20004F4B003EBD3CBEBEBD3CA8
:10067000BDBC21BD00535445D00054CF005045456A
:10068000CB4142D341524541C444524541C4524EEC
:10069000C4004C4953D44C4F41C44E45D75255CE5B
:1006A000534156C54E4558D44C45D449C6474F547E
:1006B000CF474F5355C25245545552CE5245CD4661
:1006C0004FD2494E5055D45052494ED4504F4BC53D
:1006D00053544FD04259C546494C45D34D45CDBFE3
:1006E000A74157524954C54457524954C544454CF3
:1006F00041D9454EC452534545C443484149CE00B3
:10070000440740073C073807340730072C07280701
:10071000240720071C071807446563004E6F760006
:100720004F63740053657000417567004A756C0033
:100730004A756E004D617900417072004D61720022
:10074000466562004A616E00205320204D2054759A
:10075000202057205468202046202053002D2D2093
:100760005B534156455D202620455849543A207038
:100770007265737320455343207468656E20212091
:100780002D2D007465787420656469746F72202D56
:1007900020706167653A000A0909746F74616C0919
:1007A0007573656409667265650A5352414D204D43
:1007B000656D09000A66726565206D656D206C695E
:1007C00073743A0A0D6164647209096C656E0A00FB
:1007D0000A6E616D6509696409706172656E7409FC
:1007E0007072696F0973746174650973746B6C65F9
:1007F0006E0973656D2077616974730A2D2D0A0087
:100800000A7461626C65206F662063757272656E32
:10081000742070726F6365737365730A0053756E2D
:100820004D6F6E54756557656454687546726953AB
:100830006174004A616E4665624D61724170724D2D
:1008400061794A756E4A756C4175675365704F637F
:10085000744E6F764465630011241FBECFEFD8E05D
:10086000DEBFCDBF12E0A0E0B1E0EAEAFDE602C0E3
:1008700005900D92AA3DB107D9F725E0AAEDB2E0A7
:1008800001C01D92A63DB207E1F70C94AD0C0E9489
:10089000BB1F47C6B5CBFF93EF93FC0100820FB699
:1008A000F89404A2118222823382448255826682A5
:1008B000778280869186A286B386C486D586E686B0
:1008C000F786008B118B228B338B448B558B668B79
:1008D000778B808F918FA28FB38FC48FD58F0F901E
:1008E000068E0F90078E0DB600A20EB601A2FB0178
:1008F00000A00DBE01A00EBE078C0F92068C0F92B9
:10090000D58DC48DB38DA28D918D808D77896689AB
:10091000558944893389228911890089F784E684BD
:10092000D584C484B384A2849184808477806680D3
:100930005580448033802280118004A00FBE008047
:10094000EF91FF910895A0E0B0E0E9EAF4E00C94A3
:100950003B338C01EB01FC018481682F660F680F2B
:100960008581582F550F580F9E0140E0862F840F28
:1009700090E0A0E0835E974FAF4FFC018491A7FD0C
:100980008081F90181939F01852F840F90E0A0E081
:100990008D5C974FAF4FFC018491A7FD8081F901D9
:1009A00083834F5F433011F780E28F838B83BE01D7
:1009B000685F7F4FF801838140E2082E000C990B9D
:1009C000D2D0BE01655F7F4FF80182814AE3082ED5
:1009D000000C990BC8D0BE01625F7F4FF801818186
:1009E0004AE3082E000C990BBED0BE016F5E7F4F0C
:1009F000F801808140E2082E000C990BB4D0F80178
:100A00008681978164E670E08459984F0E94D032C5
:100A10006B017C01BE016C5E7F4F40E2C601A3D03A
:100A2000BE016A5E7F4F40E0C7019DD0CDB7DEB703
:100A3000E8E00C945733A4E0B0E0E1E2F5E00C9478
:100A40003B336C017B01E091D405F091D5053097E3
:100A500029F060ED75E009958C0102C00FEF1FEFE2
:100A6000F60140815181628173818091D00590911E
:100A7000D105A091D205B091D305840F951FA61F73
:100A8000B71F101611064CF4A801012E000C660BBE
:100A9000770B840F951FA61FB71F89839A83AB839B
:100AA000BC83B701CE01019670D0F701138702878E
:100AB0002496E8E00C945733A4E0B0E0E2E6F5E0D9
:100AC0000C943B338C0128D169837A838B839C837C
:100AD000F8018285938597FF0EC0E091D405F091CF
:100AE000D505309741F060ED75E0CE01019609958E
:100AF000F80193878287F801828593851816190675
:100B000094F4092E000CAA0BBB0B49815A816B810E
:100B10007C816A017B01C81AD90AEA0AFB0AC982E8
:100B2000DA82EB82FC8289819A81AB81BC8140911F
:100B3000D0055091D1056091D2057091D305841BE9
:100B4000950BA60BB70B89839A83AB83BC83B80143
:100B5000CE01019670DF69817A818B819C81249618
:100B6000E8E00C9457331F93CF93DF93EB01142FDE
:100B70006AE070E00E94D032605D6883805D8983A6
:100B80001A83DF91CF911F910895A8E0B0E0EBECBC
:100B9000F5E00C943B338B01FC0160817181828113
:100BA000938120E831E541E050E00E94E3326901A1
:100BB0007A012CE330E040E050E00E9405332983C5
:100BC0003A834B835C8389819A81AB81BC81F80134
:100BD00060836CE370E00E94D032DC01CB01F8014D
:100BE000A1838283C601069667E070E00E94BC3252
:100BF00084832DEA3EE840E050E0C701B6010E9440
:100C0000053329833A836D837E838F839887898117
:100C10009A8124E6289F6001299FD00C11246D81C0
:100C20007E818F81988525EB35E040E050E00E9481
:100C3000053329833A836D837E83E980FA80EE0C45
:100C4000FF1CEE0CFF1CEC0CFD1C8D819E81F5E65B
:100C5000EF16F10410F0019604C024E6E216F10448
:100C600019F021E030E002C020E030E0A901445951
:100C70005E4F4817590768F46DE671E0821B930BCD
:100C80000E94D032DC01CB01E80EF91ECD0120E03C
:100C900030E044E6E40EF11CF801F782E682918729
:100CA0008087255C3F4F8217930748F46FE170E01F
:100CB0000E94D032DC01CB01F801858322C069E9B2
:100CC00070E0821B930B0E94D032DC01CB01F82E26
:100CD000FF0CFF0CF80E6DE370E0CD010E94D032E6
:100CE000DC01CB01E82EEE0C6FE170E0CD010E943B
:100CF000D032DC01CB0122E0280FF20EFE0CF8010D
:100D0000F582A383F8011386128683818F5F838324
:100D10002896E8E00C945733A0E0B0E0E2E9F6E072
:100D20000C943733EC01EE81FF818F0104561109D9
:100D3000B9F0CF01855691096C0197FF03C023E0FC
:100D4000C20ED11CD594C794D594C7946CE97FEF9B
:100D50000E94D032C60ED71E8FEFC81AD80A02C022
:100D6000C12CD12C2DE631E0D8010E94C9360D2CC2
:100D7000000CEE08FF08C60ED71EE81EF91E8B8178
:100D8000082E000C990B8C01015011092D81223085
:100D90002CF4222371F1015E1F4F2BC0CF01845927
:100DA000984F64D0282F30E0255C3F4F200F311F33
:100DB0008D81082E000C990B02978530910514F057
:100DC00027563F4F65E070E00E94D032AC0197FF9C
:100DD00002C04F5F5F4F559547959DE3949F8001FB
:100DE000959F100D1124020F131F80FF02C0015E9A
:100DF0001F4FC801110FAA0BBB0B9C01AD012C0D9D
:100E00003D1D4E1D5F1D60E871E581E090E00E9490
:100E1000AD324B015C01AA810A2E000CBB0B20E114
:100E20003EE00E94C9366B017C01A9810A2E000CAC
:100E3000BB0B2CE330E00E94C936C60ED71EE81E5D
:100E4000F91E6881862F660F990BAA0BBB0B8C0DC0
:100E50009D1DAE1DBF1DBC01CD01680D791D8A1DF4
:100E60009B1DCDB7DEB7ECE00C9453339C0123708F
:100E70003327232B59F464E670E00E94D032892B8B
:100E800039F46370772781E0672B19F080E00895CB
:100E900081E00895E0910401F0910501158287E653
:100EA000848386E0828388E981830895E091040148
:100EB000F0910501908195FFFDCF868308951F92E3
:100EC0000F920FB60F9211242F933F934F935F937E
:100ED0006F937F938F939F93AF93BF93EF93FF9302
:100EE0004091C6004093F80220E030E061E070E0FD
:100EF00080E090E00E946B1CFF91EF91BF91AF9159
:100F00009F918F917F916F915F914F913F912F9121
:100F10000F900FBE0F901F901895A4E0B0E0E3E98A
:100F2000F7E00C943F3319821A821B821C821982CB
:100F30001A821B821C8209811A812B813C8106172F
:100F400017072807390770F4000009811A812B81DF
:100F50003C810F5F1F4F2F4F3F4F09831A832B8315
:100F60003C83E9CF2496E4E00C945B3380E284B9BF
:100F70002D9A60E47DE083E090E0CFDF2D9860E47F
:100F80007DE083E090E0C9CF10922103109222030C
:100F9000109223031092240381E008951F920F9270
:100FA0000FB60F9211242F933F934F935F936F933C
:100FB0007F938F939F93AF93BF93EF93FF93809112
:100FC0002B0390912C03A0912D03B0912E03019639
:100FD000A11DB11D80932B0390932C03A0932D038F
:100FE000B0932E03883E9340A105B105D8F08091BF
:100FF0002F0390913003A0913103B09132030196F9
:10100000A11DB11D80932F0390933003A093310352
:10101000B093320310922B0310922C0310922D03E5
:1010200010922E0360912B0370912C0380912D035D
:1010300090912E0324E630E040E050E00E94E3323D
:10104000672B682B692BF9F4809125039091260377
:1010500025E0289FF001299FF00D1124E353FB4F59
:10106000818192818430910574F4289FF001299F39
:10107000F00D1124E353FB4F808181508083811157
:1010800002C00E940E158091DA029091DB02019657
:101090009093DB028093DA028091DA029091DB0276
:1010A0008D32914038F11092DB021092DA02809179
:1010B000270390912803A0912903B0912A03019757
:1010C000A109B10949F08093270390932803A093C5
:1010D0002903B0932A030EC081E090E0A0E0B0E0C5
:1010E0008093270390932803A0932903B0932A03A6
:1010F0000E948E11FF91EF91BF91AF919F918F91BF
:101100007F916F915F914F913F912F910F900FBE03
:101110000F901F90189513D7909326038093250363
:1011200081E090E0A0E0B0E0809327039093280353
:10113000A0932903B0932A0310922F031092300337
:10114000109231031092320310922B0310922C0351
:1011500010922D0310922E0385B5836085BD84B552
:10116000826084BD89EF87BDEEE6F0E08081826019
:1011700080830895CF92DF92EF92FF92CF93DF9317
:101180006B017C018AD5D82F83E0C816D104E10415
:10119000F10420F08D2F84D5CFEF11C029E22C9DD2
:1011A000C0012D9D900D1124885D9E4FFC01769607
:1011B0000590F491E02D0995C82F8D2F71D58C2FB6
:1011C000DF91CF91FF90EF90DF90CF9008954F92F5
:1011D0005F926F927F92AF92BF92CF92DF92EF9227
:1011E000FF920F931F93CF93DF93CDB7DEB729976D
:1011F0000FB6F894DEBF0FBECDBF2B013C01298393
:101200003A834B835C83ED82FE820F8318877601DD
:10121000650143D5898783E0481651046104710450
:1012200028F089853DD58FEF898319C029E2249D57
:10123000C001259D900D1124885D9E4FFC01B29642
:101240000590F491E02D0D811E812F813885498113
:101250005A816B817C8109958983898521D5898112
:1012600029960FB6F894DEBF0FBECDBFDF91CF91A8
:101270001F910F91FF90EF90DF90CF90BF90AF90B4
:101280007F906F905F904F900895A6E0B0E0EBE400
:10129000F9E00C9431332B8D29838C8CED8CFE8CF2
:1012A00009A13AA13E83F9D4982E40E4E416F10452
:1012B0001CF470E4E72EF12C83E0E80EF11C9CEFA7
:1012C000E92227010F2C000C66087708C301B20140
:1012D00096D21C01019679F488EB91E00E94891561
:1012E000892DDED4FFEFFA832FEF2B833FEF3C8372
:1012F0004FEF4D8309C13091DC022091DD028091D6
:10130000DE029091DF02A12CB12C1BE5632F722F1E
:1013100024E030E040E050E00E9405336B017C01A6
:101320006A83DB82EC82FD82169FF001179FF00D2D
:101330001124E95CFC4F80819181B701A6014F5FC8
:101340005F4F6F4F7F4F892B79F44093DC025093AE
:10135000DD026093DE027093DF028FEFC816D806BD
:10136000E806F806A1F4B8CF342F252FCB01EFEF14
:10137000AE1ABE0AF4E0AF16B10441F64093DC02A7
:101380005093DD026093DE029093DF02A5CF2F8D94
:1013900038A1121613060CF09FCF8091A3049091F0
:1013A000A404A091A504B091A6040196A11DB11DAD
:1013B0008093A3049093A404A093A504B093A604DF
:1013C00085E090E0918380833383228331AE20AE29
:1013D00042AE53AE64AE75AEDF01AB5BBF4F1C9245
:1013E000A02FBE818F0180E090E02D91F801E80FE1
:1013F000F91F26AF222321F0019687309105A9F726
:101400002BE52C9DC0012D9D900D1124FC01E95C64
:10141000FC4F5F01EA5BFF4F8FEF9FEF918380836B
:10142000E5D1F501E85BFF4F60837183828393838D
:101430003896108231961182108232961182108273
:101440003296118210828AEAF10180838BA19CA1DD
:10145000F50193A782A720E030E0F801E20FF31F27
:1014600014822F5F3F4F26323105B9F72BE52C9DB3
:10147000F0012D9DF00D1124E95CFC4F298124AB76
:1014800085AA26A387A220E820A7DE01959620E062
:1014900030E02817390764F44D915D91F901EE0FA2
:1014A000FF1FE00FF11F55A744A72F5F3F4FF1CF5C
:1014B000FC017696EE0FFF1F4BE54C9D90014D9D74
:1014C000300D1124E20FF31FE95CFC4F11821082F2
:1014D000F901E95CFC4F848F958F2D593C4F228F89
:1014E000338F82EC94E1D10111978C9311979C93E7
:1014F000119739813C9311978C9245E0241A310859
:1015000024A235A2892DCCD36A817B818C819D81D7
:101510002696E2E10C944D3361E070E080E090E0CB
:10152000089564D1C6C3A0E0B0E0E9E9FAE00C9404
:101530003733EC016A017B01B0D3C114D104E1045B
:10154000F10409F447C02091C9043091CA04C217BC
:10155000D30708F43FC02091CB043091CC042C1762
:101560003D07C0F197E0C90ED11CE11CF11C98EFBA
:10157000C922A601DD0C660B770BE091C304F09144
:10158000C404A3ECB4E0309741F0EC17FD0740F53C
:10159000DF010190F081E02DF6CF94E0A33CB90784
:1015A000D1F11296CD90DD90ED90FC9015978D01C4
:1015B0000B2E000C220B330B0C0D1D1D2E1D3F1D81
:1015C0006E010D2E000CEE08FF08C016D106E206D3
:1015D000F30618F465D38FEF82C0309741F41EC034
:1015E00094E0A33CB907E9F600E010E098016E0131
:1015F0000D2E000CEE08FF08C40ED51EE61EF71EC9
:101600004F010F2E000CAA08BB088C149D04AE04D9
:10161000BF0420F4DFCF00E010E09801C090C504C3
:10162000D090C604E090C704F090C804C40ED51E44
:10163000E61EF71EC092C504D092C604E092C7040D
:10164000F092C8046E010D2E000CEE08FF08C016C3
:10165000D106E206F30691F412960D911D912D919B
:101660003C911597400F511F621F731F12964D93A7
:101670005D936D937C931597ED0108C0F983E88322
:101680004A835B836C837D83CD93DC934A815B814A
:101690006C817D818E010D2E000C220B330B040F0B
:1016A000151F261F371F6F010F2E000CEE08FF08B5
:1016B0000C151D052E053F0581F40281138124813F
:1016C0003581400F511F621F731F4A835B836C83F8
:1016D0007D832081318139832883E2D281E0CDB7B7
:1016E000DEB7ECE00C945333CF92DF92EF92FF928F
:1016F000CF93DF936B017C01D0D2D82F83E0C81643
:10170000D104E104F10420F08D2FCAD2CFEF11C033
:1017100029E22C9DC0012D9D900D1124885D9E4FC6
:10172000FC017E960590F491E02D0995C82F8D2F30
:10173000B7D28C2FDF91CF91FF90EF90DF90CF90B9
:10174000089525E0AC01249FC001259F900D112430
:10175000FC01E353FB4F41815281443051051CF59C
:10176000BA01052E000C880B990B249FF001259FD0
:10177000F00D1124E353FB4FA181B28143815481C9
:10178000249FF001259FF00D1124E353FB4FB283FA
:10179000A1832A9FF0012B9FF00D1124E353FB4FEF
:1017A0005483438308956FEF7FEFCB01089545E0A5
:1017B000469FF001479FF00D1124E353FB4FA18199
:1017C000B28123813481429FF001439FF00D1124A7
:1017D000E353FB4FB283A1834A9FF0014B9FF00D6F
:1017E0001124E353FB4F3483238308956091330323
:1017F0007091340380913503909136030895A0E0F1
:10180000B0E0E5E0FCE00C943B336B017C0145D299
:10181000C114D104E104F10449F197E0C90ED11CCF
:10182000E11CF11C98EFC9220D2C000CEE08FF08FA
:10183000E091C304F091C404A0E0B0E0C0E0D0E0C7
:1018400023EC34E0309781F04281538164817581CB
:101850004C155D056E057F0510F0D901EF019F0164
:101860000190F081E02DEECF209721F419D28FEF77
:101870009FEF41C00A811B812C813D81C016D1069A
:10188000E206F30629F4288139812D933C9311C097
:101890000C191D092E093F090A831B832C833D83E4
:1018A000AE01DD0F660B770B040F151F261F371FC8
:1018B000E8014091C5045091C6046091C70470913D
:1018C000C8044C195D096E097F094093C504509303
:1018D000C6046093C7047093C804E2D1D701C6015F
:1018E0000497A109B109AE01DD0F660B770B840FD8
:1018F000951FA61FB71FCDB7DEB7E8E00C9457338E
:10190000CF92DF92EF92FF92CF93DF936B017C0136
:10191000C4D1D82F83E0C816D104E104F10420F02B
:101920008D2FBED1CFEF11C029E22C9DC0012D9D7E
:10193000900D1124885D9E4FFC0172960590F491E4
:10194000E02D0995C82F8D2FABD18C2FDF91CF9132
:10195000FF90EF90DF90CF9008955BD389E191E005
:101960009F938F9386D282E392E00E948915B0D232
:101970001092A3041092A4041092A5041092A6043D
:1019800010921F0510922005109221051092220539
:10199000E7E3F3E00F900F901182108216AE11AEC4
:1019A00010AE13821282E55AFF4F84E0E33AF80743
:1019B00099F7C7EAD4E003EC14E0188219821A827E
:1019C0001B821C82BCD29E838D8327960C171D0719
:1019D000A1F7DADAB4D290931E0580931D0560E07A
:1019E00070E0CB018DDF61E070E080E090E088DFA7
:1019F00062E070E080E090E083DF8DDBE091C30483
:101A0000F091C40480E090E0DC01309761F0428105
:101A1000538164817581840F951FA61FB71F0190A4
:101A2000F081E02DF2CFBF93AF939F938F9387E226
:101A300091E09F938F931DD21F921F921F921F922E
:101A40008DE391E09F938F931F928AE08F931F9273
:101A500080E48F931F921F9218DC2BE5269FF001E4
:101A6000279FF00D1124E95CFC4F81E090E0918309
:101A7000808318D11F921F921F921F9283E491E0DE
:101A80009F938F931F9284E18F9381E08F9388EBD4
:101A90008F938BEB9FE19F938F93F7DB12D58DB7DD
:101AA0009EB74E960FB6F8949EBF0FBE8DBFFFCF68
:101AB000CF93DF93FA0134973B9708F04DC0643021
:101AC00071058105910508F047C03BE5369FF0019F
:101AD000379FF00D1124E95CFC4F0190F081E02D5F
:101AE000EF2BD1F135E0349FF001359FF00D11243B
:101AF000E353FB4F41815281B5E035E0B49FF001E3
:101B0000B59FF00D1124E353FB4FA081A2171CF0E9
:101B100041815281F2CFC381D481369FD001379F5A
:101B2000B00D1124A353BB4F12965C934E931197A3
:101B30001496DC93CE9313972C933C9FD0013D9F3A
:101B4000B00D1124A353BB4F12967C936E93119743
:101B50007483638381E001C08FEFDF91CF9108959B
:101B60004F925F926F927F928F929F92AF92BF92AD
:101B7000CF92DF92EF92FF92CF934B015C01CA01AB
:101B800004970B9708F07AC084E088169104A104AA
:101B9000B10408F073C08BE5889DF001899DF00DBC
:101BA0001124E95CFC4F80819181892B09F466C086
:101BB0002A01052E000C6608770885E0849FF00155
:101BC000859FF00D1124E353FB4F81819281092EF3
:101BD000000CAA0BBB0B4F5F5F4F052E000C660B72
:101BE000770BC5E06A017B0184179507A607B70745
:101BF00049F535E0389DF001399DF00D1124E3538E
:101C0000FB4FD282C182548243822083349DA00143
:101C1000359D500D1124FA01E353FB4F92828182CE
:101C20003C9DF0013D9DF00D1124E353FB4F948248
:101C300083828C159D05AE05BF05F1F08081821B66
:101C400080831AC0C89FF001C99FF00D1124E3538F
:101C5000FB4F308123175CF0231B0180F281E02DC4
:101C60002C013D01CF01FF0FAA0BBB0BBBCF6C01B9
:101C70007D01DB01CA01BDCF81E001C08FEFCF91B3
:101C8000FF90EF90DF90CF90BF90AF909F908F909C
:101C90007F906F905F904F9008958FB7F89408955C
:101CA0008FBF089578940895FFCF8FEF089581E056
:101CB0000895AF92BF92CF92DF92EF92FF921F935F
:101CC000CF93DF936B017C01E8DF182F84E0C81607
:101CD000D104E104F10488F48BE58C9DF0018D9D25
:101CE000F00D1124E95CFC4F80819181892B29F052
:101CF000C114D104E104F10421F4812FD1DF8FEF6D
:101D00009DC08091A3049091A404A091A504B091DA
:101D1000A6040197A109B1098093A3049093A40498
:101D2000A093A504B093A6040297A105B1050CF4F5
:101D3000A0D68BE58C9D50018D9DB00C1124F50132
:101D4000E158FC4F6081718182819381A7019601E6
:101D5000A5D4C0E0D0E0FE01EA0DFB1DE857FC4F22
:101D600060817181072E000C880B990B03DA229693
:101D7000C630D10581F78BE58C9DE0018D9DD00D9E
:101D80001124C95CDC4F4AAD5BAD6CAD7DAD495FE4
:101D90005F4F6F4F7F4F487F052E000C660B770B10
:101DA00088AD99AD092E000CAA0BBB0B0496A11DA2
:101DB000B11D841B950BA60BB70BB5DB88819981F0
:101DC0008430910581F030F48130910549F002971B
:101DD00029F127C08630910551F0079721F021C0E5
:101DE000198218829BD2C701B60181D51AC0CA5B7D
:101DF000DF4F8881998127E0289FF001299FF00D0E
:101E00001124E955FB4F81819281A381B481019610
:101E1000A11DB11D81839283A383B483C701B60141
:101E2000C6DC8BE58C9DF0018D9DF00D1124E95CE5
:101E3000FC4F11821082812F33DF81E0DF91CF913F
:101E40001F91FF90EF90DF90CF90BF90AF900895DB
:101E5000CF93DF93C82F21DFD82FCA3011F48DE044
:101E600025D88C2F23D88D2F1BDF81E0DF91CF91D8
:101E70000895A1E5B0E0EFE3FFE00C943D338E015F
:101E8000065A1F4FF801E190F1908F0121E530E0F3
:101E900040E050E060E070E0CE0101960E940F3417
:101EA0009801A70160E570E0CE0101960E941E3402
:101EB0008E010F5F1F4FF80181918F01882311F070
:101EC000C7DFF9CF81E0CF5ADF4FE6E00C945933FA
:101ED0000F931F93CF93DF9386ED95E0A0E8BB2788
:101EE0000196A11DB11DEC019093CA048093C90411
:101EF0002FEF38E03093CC042093CB04E3ECF4E0F4
:101F00009183808319821882092E000CAA0BBB0BC7
:101F10004FEF58E060E070E08A019B01081B190B4D
:101F20002A0B3B0B0A831B832C833D830283138381
:101F300024833583DF91CF911F910F9108952091D4
:101F4000060130910701203131053CF5C9010296A7
:101F50009093070180930601A9014F5F5F4F65E0F1
:101F6000629FF001639FF00D1124E353FB4F5283F6
:101F700041838FEF9FEF948383837FEF7083649F10
:101F8000F001659FF00D1124E353FB4F9283818391
:101F9000348323831082C90108958FEF9FEF089542
:101FA0008F929F92AF92BF92EF92FF920F931F93E7
:101FB000CF93DF934B015C018A0179016EDED82F4C
:101FC00083E088169104A104B10420F08D2F68DE0F
:101FD000CFEF13C029E2289DC001299D900D112447
:101FE000885D9E4FFC0174960590F491E02DA70149
:101FF000B8010995C82F8D2F53DE8C2FDF91CF911B
:102000001F910F91FF90EF90BF90AF909F908F9096
:102010000895F8940E94B6070E94B6070E944A07E6
:102020007BCACF92DF92EF92FF92CF93DF936B0147
:102030007C01C42F32DED82F83E0C816D104E1041E
:10204000F10420F08D2F2CDECFEF12C029E22C9D61
:10205000C0012D9D900D1124885D9E4FFC01B0960E
:102060000590F491E02D6C2F0995C82F8D2F18DE67
:102070008C2FDF91CF91FF90EF90DF90CF9008955C
:10208000CF93DF939A01245031092B303105E8F5C5
:102090006430710581059105C0F52BE5269FF0019F
:1020A000279FF00D1124E95CFC4F20813181232B07
:1020B00061F14F5F5F4F25E0249FF001259FF00DF8
:1020C0001124E353FB4FC381D481269FD001279F66
:1020D000B00D1124A353BB4F12965C934E931197EE
:1020E0001496DC93CE9313972C9FD0012D9FB00DA7
:1020F0001124A353BB4F12967C936E931197748354
:102100006383462F372F282F04C04FEF3FEF2FEF69
:102110009FEF642F732F822FDF91CF910895CF937C
:102120009C01245031092B303105F8F4C5E0C89FDB
:10213000F001C99FF00D1124E353FB4F218132813F
:102140002430310594F4FDDAC69FF001C79FF00DED
:102150001124E353FB4F2FEF3FEF3483238332836C
:102160002183462F372F282F04C04FEF3FEF2FEF4B
:102170009FEF642F732F822FCF9108954F925F921C
:102180006F927F928F929F92AF92BF92EF92FF9247
:102190000F931F93CF93DF932B013C017A014801EA
:1021A00059017BDDD82F83E0481651046104710486
:1021B00020F08D2F75DDCFEF14C029E2249DC001E2
:1021C000259D900D1124885D9E4FFC017896059009
:1021D000F491E02DA5019401B7010995C82F8D2F29
:1021E0005FDD8C2FDF91CF911F910F91FF90EF90CA
:1021F000BF90AF909F908F907F906F905F904F9027
:1022000008956430710581059105C8F42BE5269F7A
:10221000F001279FF00D1124E95CFC4F20813181F2
:10222000232B69F022E030E03183208340911D05AB
:1022300050911E0522813CDC71D081E008958FEF22
:102240000895CF92DF92EF92FF92CF9326DDC82FB1
:10225000C0903303D0903403E0903503F090360300
:102260008BE58C9DF0018D9DF00D1124E95CFC4FF8
:10227000DF01A05BBF4F8C91811105C083E090E02E
:10228000918380834BD02BE52C9DC0012D9D900D1B
:102290001124895C9C4FFC01E45BFF4FC080D1801E
:1022A000E280F380349610828C2FFADCC701B601ED
:1022B000CF91FF90EF90DF90CF900895CF92DF9273
:1022C000EF92FF92EADC4091330350913403609126
:1022D0003503709136039BE5949F9001959F300DD7
:1022E0001124295C3C4FF901E05BFF4F9081913054
:1022F00049F4D901A45BBF4FCD90DD90ED90FC90E7
:10230000108204C0C12CD12C7601C394C9DCC70152
:10231000B601FF90EF90DF90CF900895CF92DF92BB
:10232000EF92FF9280911F0590912005A0912105C9
:10233000B0912205181619061A061B0624F481E02E
:10234000809323056DC0C0903303D0903403E09098
:102350003503F09036038BE58C9DF0018D9DF00DDB
:102360001124E95CFC4F80819181019739F522812C
:10237000338140911D0550911E0585E0849FD00159
:10238000859FB00D1124A353BB4F11966D917C9185
:102390001297869FD001879FB00D1124A353BB4F86
:1023A0008C91082E000C990B82179307CCF182E0D8
:1023B00090E091838083C701B6017ADB80911D058F
:1023C00090911E05ACDE60933303709334038093C9
:1023D0003503909336032BE5269FD001279FB00D40
:1023E0001124FD01E95CFC4F41E050E05183408342
:1023F00041E050E060E070E04093270350932803F1
:102400006093290370932A03BD01655C7C4F2C9D6A
:10241000C0012D9D900D1124855C9C4F0E944B04A2
:10242000FF90EF90DF90CF900895613071058105A6
:10243000910531F06230710581059105F1F03FC0E1
:1024400080911F0590912005A0912105B091220552
:10245000AC01BD014F5F5F4F6F4F7F4F40931F0532
:10246000509320056093210570932205892B8A2BB8
:102470008B2B19F51092230520C080911F05909198
:102480002005A0912105B0912205181619061A06FB
:102490001B06ACF40197A109B10980931F05909325
:1024A0002005A0932105B0932205892B8A2B8B2B25
:1024B00021F480912305811131DF81E008958FEFB0
:1024C0000895CF92DF92EF92FF921F93CF93DF9305
:1024D0006B017C01E2DB182F84E0C816D104E10413
:1024E000F10470F48BE58C9DF0018D9DF00D1124AD
:1024F000E95CFC4F80819181009711F0059729F0EC
:10250000812FCEDB8FEF9FEF09C0D281C381C7013E
:10251000B60177DE812FC4DB8D2F9C2FDF91CF9109
:102520001F91FF90EF90DF90CF900895CF93DF93AE
:10253000EC01B3DBC430D10558F497E09C9FF00167
:102540009D9FF00D1124E955FB4F9081911103C01F
:10255000A7DB8FEF03C0C181A3DB8C2FDF91CF916D
:102560000895CF92DF92EF92FF92CF93DF936B01AA
:102570007C0193DBF7FE04C093DBCFEFDFEF35C0C8
:10258000C091E002D091E10240E050E097E09E016E
:102590002F5F3F4F2430310514F020E030E09C9F46
:1025A000F0019D9FF00D1124E955FB4F60816111F1
:1025B00010C03093E1022093E00291E09083CF3F7E
:1025C0009FEFD907C9F2C182D282E382F48268DB2D
:1025D0000CC04F5F5F4F4430510511F0E901D7CF78
:1025E0003093E1022093E002C7CFCE01DF91CF917B
:1025F000FF90EF90DF90CF900895AF92BF92CF926F
:10260000DF92EF92FF921F93CF93DF93EC016A0169
:102610007B0143DB182FF7FC0EC0C430D10558F402
:1026200087E08C9FF0018D9FF00D1124E955FB4F41
:102630008081811104C0812F33DB8FEF25C0A580FD
:10264000B68061E070E080E090E0EFDEC50179D80F
:102650006F3F2FEF72078207920711F0D2DDF6CF9E
:1026600087E08C9FF0018D9FF00D1124E955FB4F01
:10267000C182D282E382F48262E070E080E090E086
:10268000D4DE812F0DDB81E0DF91CF911F91FF9090
:10269000EF90DF90CF90BF90AF9008958F929F9270
:1026A000AF92BF92CF92DF92EF92FF92CF934B0106
:1026B0005C0169017A01F1DAC82F84E0881691047F
:1026C000A104B10490F48BE5889DF001899DF00D83
:1026D0001124E95CFC4F80819181009731F0DF018A
:1026E000A05BBF4F2C91222321F08C2FD9DA8FEFE2
:1026F00016C0E45BFF4FC082D182E282F38221E008
:102700002C938330910529F0079731F4C501B4016A
:10271000EED0C501B40175DD8C2FC2DA81E0CF9116
:10272000FF90EF90DF90CF90BF90AF909F908F90F1
:1027300008950F931F93CF938C01AFDAC82F043005
:10274000110558F487E0809FF001819FF00D11245E
:10275000E955FB4F8081811104C08C2FA1DA8FEFE6
:1027600017C081819281A381B481AC01BD014F5F0B
:102770005F4F6F4F7F4F4183528363837483B7FFF3
:1027800004C085819681CBDC3CDD8C2F89DA81E029
:10279000CF911F910F910895A0E0B0E0E2EDF3E139
:1027A0000C943A338C016A017B0177DAB82E04303D
:1027B000110568F4F7FC0BC087E0809FE001819F62
:1027C000D00D1124C955DB4F8881811104C08B2D98
:1027D00067DA8FEF31C061E070E080E090E025DEE5
:1027E0008E010F5F1F4F2596C114D104E104F1043F
:1027F000D9F0F80180819181A281B381AC01BD0142
:102800004F5F5F4F6F4F7F4F40835183628373836E
:10281000B7FF04C08881998182DCF3DCF1E0CF1A34
:10282000D108E108F108E0CF62E070E080E090E0DC
:10283000FCDD8B2D35DA81E0CDB7DEB7E9E00C9415
:102840005633CF92DF92EF92FF92CF93DF9397FDB3
:1028500033C06B017C01672B682B692B11F40DD100
:1028600029C01BDAD82F409125035091260360918F
:1028700033037091340380913503909136032C2DEE
:102880006FD9C82F8F3F19F48D2F0ADA16C08091A7
:102890003303909134032BE5289FF001299FF00D1D
:1028A0001124E95CFC4F84E090E09183808336DD65
:1028B0008D2FF6D9C1E001C0CFEF8C2FDF91CF91E2
:1028C000FF90EF90DF90CF9008956C3924EC720761
:1028D00020E28207910548F49B01AC01AAE0B0E038
:1028E0000E942733AEDF81E008958FEF0895CF92E5
:1028F000DF92EF92FF92CF936B017C01CED9C82F6C
:1029000084E0C816D104E104F10488F48BE58C9DC1
:10291000F0018D9DF00D1124E95CFC4F80819181C7
:10292000009729F08430910531F0079721F08C2F22
:10293000B7D98FEF21C025E02C9DD0012D9DB00D82
:102940001124A353BB4F11968D919C911297843003
:1029500091055CF4289FF001299FF00D1124E353A9
:10296000FB4F90818C91890F8083C701B6010E9433
:10297000D70B8C2F95D981E0CF91FF90EF90DF900E
:10298000CF9008950E94F60B94C91F93CF93DF93C5
:10299000EC0183D9182FC430D10558F487E08C9FFF
:1029A000F0018D9FF00D1124E955FB4F80818111BD
:1029B00004C0812F75D98FEF2DC081819281A381B1
:1029C000B4810197A109B10981839283A383B48360
:1029D000B7FF1DC0609133037091340380913503BC
:1029E000909136032BE5269FD001279FB00D11242F
:1029F000A95CBC4F26E030E011963C932E93AA5B75
:102A0000BF4FCD93DC93458156813ADB87DC812F24
:102A100047D981E0DF91CF911F910895CF9361E075
:102A200070E080E090E001DDC5E0809125039091A9
:102A30002603C89FF001C99FF00D1124E353FB4FFB
:102A400021813281243031056CF4C29FF001C39F93
:102A5000F00D1124E353FB4F208112161CF05FDBB5
:102A6000D0DBE3CF62E070E080E090E0DEDCCF918D
:102A700008958BE092E04DD017C9CF930ED9C82F9F
:102A80004DDC8C2F0DD981E0CF910895823621F451
:102A900015B88FEF84B965B90895823611F485B100
:102AA00008958FEF08951F93CF93DF93162F8930EA
:102AB0003CF4C1E001C0CC0F8A95EAF7D4E617C018
:102AC000282F082E000C330B8E304CF4285031097F
:102AD000C1E001C0CC0F2A95EAF7D2E608C02D501C
:102AE0003109C1E001C0CC0F2A95EAF7D3E68D2F5A
:102AF000D4DF112319F06C2F682B03C0C0956C2F05
:102B000068238D2FC3DF80E090E0DF91CF911F918C
:102B100008950F931F93CF93DF938C010E94E933A5
:102B2000E801080F191FC017D10731F0FE012196E7
:102B300085910E945607F7CFDF91CF911F910F919A
:102B400008950F931F930091330310913403209144
:102B50003503309136036BE5609FA001619F500DF6
:102B60001124FA01E458FC4F1082DC0120E030E02F
:102B70009D91F901E40FF51FE95CFC4F96AF992395
:102B800029F02F5F3F4F2730310591F71F910F91AB
:102B90000895A0E1B0E0EFECF5E10C943F338C0137
:102BA00040912405509125056091260570912705D7
:102BB00080912F0390913003A0913103B0913203A3
:102BC000840F951FA61FB71F8D879E87AF87B88B71
:102BD000BE016F5F7F4FCE010D960E941B05B801AD
:102BE000CE0101960E94A3046096E4E00C945B334E
:102BF000AFE0B0E0EEEFF5E10C9439338C011F86C5
:102C0000FC0180818D8781818E87CE010D960E9487
:102C1000CC33D82EF80183818D8784818E87CE01B5
:102C20000D960E94CC33C82EF80186818D8787814E
:102C30008E87CE010D960E94CC337C01F8018185F0
:102C40008D8782858E87CE010D960E94CC33B82E5B
:102C5000F80184858D8785858E87CE010D960E942B
:102C6000CC33A82EF80187858D8780898E87CE0189
:102C70000D960E94CC338983AA82BB82DA94DE82CD
:102C8000CC82F4E6EF0EF11CF886EF821C861B86E0
:102C9000CE0101960E945C0500912F031091300334
:102CA0002091310330913203DC01CB01801B910B69
:102CB000A20BB30B8093240590932505A0932605C2
:102CC000B093270580E090E02F96EAE00C9455330E
:102CD000A1E5B0E0EEE6F6E10C943B3321E530E00F
:102CE00040E050E060E070E0CE0101960E940F34B9
:102CF0009E01205A3F4FA0964EAD5FADA09760E574
:102D000070E0CE0101960E941E348E010F5F1F4FAE
:102D10006E96CEACDFAC6E970D2C000CEE08FF0863
:102D2000F80141918F01442321F0C701B60179D9FF
:102D3000F7CF80E090E0CF5ADF4FE8E00C945733B4
:102D4000A1E5B0E0E6EAF6E10C943E339E01275A95
:102D50003F4FF901419151919F0161E570E0CE0132
:102D600001960E941E348E010F5F1F4F8BE5F82ED7
:102D7000F8018081882359F18A3099F480913303D6
:102D800090913403F89EF001F99EF00D1124E6575E
:102D9000FC4F60817181072E000C880B990B4DE070
:102DA00040D98091330390913403F89EF001F99E4D
:102DB000F00D1124E657FC4F60817181072E000C45
:102DC000880B990BF80141918F012BD9D1CF80E06D
:102DD00090E0CF5ADF4FE5E00C945A330F931F93E6
:102DE00000E010E09801041715072607370764F480
:102DF000DC01ED91CD010F5F1F4F2F4F3F4FE111D0
:102E0000F2CFB801C90104C06FEF7FEF8FEF9FEFE2
:102E10001F910F910895A6E0B0E0E1E1F7E10C9475
:102E20003133182F9C831B0169017A010E944D0EDA
:102E3000082F40E150E060E070E0812F9C81CEDF00
:102E40004B015C0141E050E060E070E0C101C6DF91
:102E50002B013C012FEF82169206A206B20649F121
:102E60006F3F7F4F8F4F9F4F21F153E0C516D10425
:102E7000E104F104F0F48091280590912905A091D6
:102E80002A05B0912B0584309105A105B1058CF47C
:102E900019831C811A8325E1289FA001299F500DC9
:102EA00011245E834D8320E030E040E050E0BA0121
:102EB00005C0802F0E94500E8FEF43C04815590562
:102EC0006A057B059CF4E981FA811191FA83E98313
:102ED000ED81FE81E20FF31FE45DFA4F10834F5F37
:102EE0005F4F6F4F7F4F2F5F3F4FE8CF1414150494
:102EF000160417045CF4F101208135E1389FF001DC
:102F0000399FF00D1124E45DFA4F208B25E1289FB5
:102F1000F001299FF00D1124E45DFA4FC18AD28A95
:102F2000E38AF48A0196A11DB11D80932805909330
:102F30002905A0932A05B0932B05802F0E94500EDF
:102F400081E02696E2E10C944D33A0E2B0E0EBEA9A
:102F5000F7E10C94333386E0EEE4F1E0DE015B96BA
:102F600001900D928A95E1F710922805109229059B
:102F700010922A0510922B0583EA91E0CADD88E2BF
:102F8000E82E81E0F82E88E090E09C012852314044
:102F9000690198E4892E91E0992EDE015B968E01FD
:102FA0000F5F1F4F412C512C320158018D91F801B8
:102FB0008193882339F03FEF431A530A630A730A57
:102FC0008F01F4CFB6016E0D7F1D685D7E4F4AE024
:102FD00050E0CE0141960E940034FE017196BFEF91
:102FE0004B1A5B0A6B0A7B0A20E14216510461040A
:102FF000710464F481919FEB980F9A3108F4805E1C
:10300000D8018D938D018111EACF09C030E14316BB
:1030100051046104710419F089EC91E017C0BF926A
:10302000AF929F928F920E94390FF70125913591AF
:103030004591559169ED72E0C501EDDE0F900F905D
:103040000F900F908F3F19F48EEE91E062DDF9E260
:10305000EF0EF11C23EAE21621E0F20609F09DCF03
:103060002FEF3FEFA90169ED72E08EE491E0D3DE2E
:1030700081E0A096E0E10C944F334F925F926F9203
:103080007F928F929F92AF92BF92DF92EF92FF92C8
:103090000F931F93CF93DF9300D000D01F92CDB733
:1030A000DEB7E0902805F090290500912A051091DF
:1030B0002B05E982FA820B831C832CE235E0812CFC
:1030C000912C5401E980FA800B811C818E149F049D
:1030D000A006B106ACF47C01F901412C512C32015F
:1030E000D70141914423C1F00FEFE01AF00A5C913F
:1030F00045130AC01FEF411A510A610A710AF0CF45
:103100006FEF7FEFCB0165C00FEF801A900AA00A26
:10311000B00A2B5E3F4FD6CF7D83D62E40E150E0E4
:1031200060E070E05BDE698385E1889D8001899DB8
:10313000100D1124045C1A4F40E150E060E070E093
:10314000C8014CDEA9812A2FAA0F330B440B550B63
:1031500024193509460957092B013C01B1E04B1AE6
:10316000510861087108420E531E641E751EE1E18C
:103170004E165104610471041CF62B013C01D80168
:10318000ED2DFD8181E0481A510861087108141481
:103190001504160417041CF48D918193F3CF1216B5
:1031A0001306140615064CF4D7018D917D01819309
:1031B0002150310941095109F2CF85E1889DF00183
:1031C000899DF00D1124E45DFA4F6189728983892C
:1031D00094890F900F900F900F900F90DF91CF91E7
:1031E0001F910F91FF90EF90DF90BF90AF909F9055
:1031F0008F907F906F905F904F900895CF92DF9265
:10320000EF92FF92FB01C12CD12C7601C216D3069E
:10321000E406F50664F46191DC016D93CD0166234B
:1032200041F0BFEFCB1ADB0AEB0AFB0AEFCF8FEFBF
:1032300001C081E0FF90EF90DF90CF900895A0E172
:10324000B0E0E5E2F9E10C9437338B0149015A0112
:1032500020E130E040E050E0BC01CE010196CEDF3D
:103260008F3FF1F0C12CD12C76010DC020E130E070
:1032700040E050E0B801CE010196C0DF8FEFC81AE0
:10328000D80AE80AF80A8091280590912905A091AA
:103290002A05B0912B05C816D906EA06FB0614F0DC
:1032A0008FEF0AC0B801CE010196E7DE68157905F7
:1032B0008A059B05D9F2862F6096ECE00C94533377
:1032C000A0E1B0E0E6E6F9E10C943F33FC01CB016C
:1032D0008A012591359145915591BE016F5F7F4FD0
:1032E000AEDF682F880F770B880B990B6F3F2FEF9E
:1032F00072078207920739F09801AE014F5F5F4F66
:103300000E94D00F01C08FEF6096E4E00C945B3315
:103310000F931F93CF93DF930496FC0185919591B2
:10332000A591B591FA013397E830F10508F059C03D
:10333000E859FF4F0C94213320E5289F8001299FF5
:10334000100D1124E801C058DA4F8CA19DA11DDB9E
:10335000EA81FB8110818CA19DA1EBD9812F42C014
:1033600020E5289FF001299FF00D1124E058FA4F25
:1033700082E509C020E5289FF001299FF00D112466
:10338000E058FA4F83E481AF81E02CC020E5289F0C
:10339000F001299FF00D1124E058FA4F8BE4F3CF90
:1033A00020E5289FF001299FF00D1124E058FA4FE5
:1033B00084A195A1BBD816C020E5289FF001299FC4
:1033C000F00D1124E058FA4F81E082AF0BC020E5E8
:1033D000289FF001299FF00D1124E058FA4F12AEFA
:1033E000D3CF8FEFDF91CF911F910F910895A0E080
:1033F000B0E0EDEFF9E10C943B330496FC01C5908D
:10340000D590E590F59080E58C9DE0018D9DD00DE7
:1034100011248E0100581A4FD80194968D919C91D9
:103420009597B3DAD801ED91FC9111979F012F5F29
:103430003F4F11963C932E938081AE014C555A4FCD
:103440002417350720F0CC57DA4FCD93DC9390E565
:103450009C9DF0019D9DF00D1124E058FA4F91AD17
:10346000933461F4DF01AE5BBF4F9C91992331F03F
:10347000ED5BFF4F9081891301C08EEFCDB7DEB7B2
:10348000E8E00C945733CF93C82F8A3011F08D3079
:1034900059F4FB0185AD882339F08DE090E00E945E
:1034A00056078AE090E015C080EE8C0F8F3570F0E3
:1034B000FB0184AD882351F08EE590E00E94560711
:1034C00080E48C0F082E000C990B03C08C2FCC0FBE
:1034D000990B0E945607CF910895EF92FF921F9388
:1034E000CF93DF93EC01142F8CA19DA11FD8082E40
:1034F000000C990BAA0BBB0BB7FF03C080E090E058
:10350000DC0129AD2235C1F48097A105B1050CF08D
:103510005AC1EA81FB81CF0101969B838A83108384
:103520002A813B81CE0184962817390708F424C1EB
:1035300080979B838A8320C11D3019F43EAD3111E1
:103540001AE0FE01E55BFF4F10822B34F1F4809707
:10355000A105B1050CF0E7C0EA81FB81CF0101961E
:103560009B838A8310832A813B81CE01849628170E
:10357000390718F080979B838A838AAD882309F4E2
:10358000FBC0BE01812F7FDFF7C0FE01EB5BFF4F69
:1035900080819E012A5B3F4F7901181320C031972B
:1035A00080818823E1F08A819B81F901208131812A
:1035B000821B930B9E012C5F3F4F8217930708F4E9
:1035C00080969B838A83F701108211821282138274
:1035D0008DE090E00E9456078AE090E0AAC0FE01CC
:1035E000E05CFF4F8081181721F03196808118131D
:1035F00052C08FAD882309F44EC0F70180819181BC
:10360000A281B381181619061A061B060CF0DBC03E
:103610000197A109B10980839183A283B3838A8131
:103620009B819C0121503109AE014C5F5F4F2417F3
:10363000350718F03B832A8303C04F969B838A8308
:103640008AAD882309F4BFC0EA81FB818081805262
:103650008F3590F08CAD882379F088E090E00E945F
:1036600056078BAD882341F080E290E00E94560718
:1036700088E090E00E94560788E090E00E9456079C
:103680008BAD882309F49FC080E290E00E9456072A
:1036900088E090E04EC01A3011F01D3049F58AAD37
:1036A000882319F0BE01812FEEDEEA81FB81CF0174
:1036B00001969B838A8310832A813B81CE01849665
:1036C0002817390718F080979B838A83F701408178
:1036D0005181628173814F5F5F4F6F4F7F4F8CA12C
:1036E0009DA15AD8F70110821182128213826BC0F9
:1036F0008CA19DA10E949612082E000C990BAA0B7A
:10370000BB0BB7FF03C080E090E0DC01F701408114
:10371000518162817381840F951FA61FB71F4F9738
:10372000A105B1054CF0C15BDF4F8881082E000C6C
:10373000990B0E94560747C0FE01ED5BFF4F908139
:103740008AAD19131EC0319790819923D1F0882337
:1037500019F0BE01812F97DEF70180819181A2814E
:10376000B381892B8A2B8B2B71F5EA81FB81CF01E9
:1037700001969B838A8310838CA19DA10E9499133B
:1037800022C0882319F0BE01812F7DDEF7018081E0
:103790009181A281B3810196A11DB11D8083918386
:1037A000A283B383EA81FB81CF0101969B838A8345
:1037B00010832A813B81CE0184962817390718F09F
:1037C00080979B838A83DF91CF911F91FF90EF9029
:1037D0000895CF92DF92EF92FF92CF93DF93FC0197
:1037E000E55BFF4F208121116FC0EC012CA93DA9A1
:1037F0008EA99FA92817390761F02CA93DA98EA988
:103800009FA92817390761F4C12CD12C7601C394E4
:1038100020C08AA99BA90E949612883074F354C0D4
:10382000EEA1FFA1CF0101969FA38EA38081082E58
:10383000000C990B0E9456072CA93DA9CE01C996F0
:103840002817390718F001979DAB8CABC12CD12CF0
:1038500076018AA99BA90E94961228E030E0281BD5
:10386000310987FD3395CA94CD28CE28CF2809F594
:1038700012161306F4F4EEA1FFA1CF0101969FA347
:103880008EA38081082E000C990B0E9456072EA152
:103890003FA1CE01C2962817390718F008979FA3B9
:1038A0008EA341E050E060E070E08AA99BA90E94ED
:1038B000CC132CA93DA98EA99FA92817390721F45B
:1038C0008AA99BA90E949612DF91CF91FF90EF9059
:1038D000DF90CF900895ECE2F1E06591759150E5AD
:1038E000569FC001579F900D112480589A4F60E059
:1038F00070E0232B09F06DCFF0CD0F931F93CF9382
:10390000DF930496FC0185919591A591B59120E5F1
:10391000289F8001299F100D1124C8018C579A4FB0
:10392000E801C058DA4F9B838A839983888360E0DB
:1039300070E0CB010E94B1129DA38CA3C8018655F3
:103940009A4F99A788A79FA38EA368E070E080E0B4
:1039500090E00E94B1129BAB8AAB08541A4F1FAB88
:103960000EAB1DAB0CAB83E489AF81E08AAF8BAFAC
:103970008CAF8DAF8EAF8FAFFE01E05CFF4F98E054
:10398000908331969FE7908331968083319694E0BF
:10399000908331968083319695E1908331961082A1
:1039A000118212821382349680833196108231966E
:1039B00093E19083319691E1908331968083C15B4E
:1039C000DF4F87E0888381E0DF91CF911F910F91D6
:1039D0000895F89421E030E048E561E070E080E08F
:1039E00090E079DF789408958F929F92AF92BF9282
:1039F000DF92EF92FF920F931F93CF93DF93EC012F
:103A0000D62EFC01349685909590A590B5908AE0CD
:103A100068130EC080E5889DF001899DF00D11248A
:103A2000E253FA4F8081882319F06DE0CE01DCDF8C
:103A300080E5889D7001899DF00C11248701005854
:103A40001A4FD801D2968D919C91D3970E94C5149C
:103A5000D8019896ED91FC919997CF01019699968E
:103A60009C938E939897D082C7018E549A4F9896C4
:103A70002D913C9199972817390738F0C701865541
:103A80009A4F99969C938E939897FE01B496859140
:103A900095919FDF81E0DF91CF911F910F91FF9072
:103AA000EF90DF90BF90AF909F908F900895A0E02F
:103AB000B0E0EDE5FDE10C9437338C017B01490169
:103AC0005A0157FD5CC0FC01349685919591A591F2
:103AD000B59120E5289FF001299FF00D1124E058B1
:103AE000FA4F81AD833469F181149104A104B104CA
:103AF00071F484A195A10E949612882E880F9908CE
:103B0000AA08BB0881149104A104B104D1F1E70112
:103B1000C12CD12C7601C814D904EA04FB044CF45E
:103B2000C80165DC89938FEFC81AD80AE80AF80A39
:103B3000F2CFD501C401B7FE27C080E090E0DC01E0
:103B400023C0C80154DC8E3FF1F0E7018993C12CFA
:103B5000D12C7601C394C814D904EA04FB0414F0F0
:103B60008C2D12C08A30E1F38D30D1F3C8013FDCD7
:103B700089939FEFC91AD90AE90AF90AECCF8FEFA6
:103B800003C080E001C08EEFCDB7DEB7ECE00C944F
:103B90005333A0E0B0E0EFECFDE10C943B338C013B
:103BA00069017A0157FD11C0232B242B252B11F419
:103BB00081E00CC0EB016991C80116DF81E0C81AF1
:103BC000D108E108F108B9F7F3CF8FEFCDB7DEB731
:103BD000E8E00C9457334F925F926F927F92AF92CE
:103BE000BF92CF92DF92EF92FF920F931F93CF93EA
:103BF000DF9300D000D0CDB7DEB769837A838B83A3
:103C00009C8329013A010E944D0E141415041604D8
:103C1000170414F4F7FE04C00E94500E8FEF44C046
:103C2000F801B201660F771F9BE529813A81929FC7
:103C3000A001939F500D112420E030E0C190D1905D
:103C4000E190F190DA01A20FB31FA95CBC4FCA0C3E
:103C5000DB1C9D96DC92CE929C972E5F3F4F2617E1
:103C6000370761F79BE549815A81949F9001959FA1
:103C7000300D1124D901A95CBC4F9B965C924E92E9
:103C80009A97F2017696EE0FFF1F2E0F3F1FF90154
:103C9000E95CFC4F118210825C964C925C975D96B9
:103CA0001C920E94500E81E00F900F900F900F9089
:103CB000DF91CF911F910F91FF90EF90DF90CF9008
:103CC000BF90AF907F906F905F904F900895A0E06D
:103CD000B0E0EDE6FEE10C943133F901E6011701A5
:103CE000C12CD12C7601C39440E050E0BA0123E00E
:103CF000422E512C612C712C4601570121E0821A71
:103D00009108A108B108DC012C91211108C0F8012B
:103D10004083518362837383B401C501C3C02A30D9
:103D2000B1F329E0C216D104E104F104A9F0DC01E9
:103D30001AC0488259826A827B82373209F061C098
:103D40004A015B010196DC0111972C91321709F4AD
:103D500098C02A3009F058C06FEF7FEF8FEF9FEFC8
:103D6000A1C0393029F4CD013D913032D1F7FBCFDC
:103D70003A3039F4D8014D935D936D937C9313974A
:103D8000CBCF3323B9F3D1014D935D936D937D93E5
:103D90001D0101963C33A1F03E33B9F0363249F6AD
:103DA000188219821A821B82DF01A40FB51F3C936F
:103DB0004A015B01BFEF8B1A9B0AAB0ABB0A19C011
:103DC000812C912C5401839405C022E0822E912CE9
:103DD000A12CB12C88829982AA82BB82DF01A40F18
:103DE000B51F3C934A015B012FEF821A920AA20A87
:103DF000B20ADF01A80DB91D4E5F5F4F6F4F7F4FB5
:103E000049C0323271F49CCF222309F4A5CFDF01DF
:103E1000A80DB91D2C93AFEF8A1A9A0AAA0ABA0AFA
:103E200091CFDF01A40FB51F3C934A015B01BFEFA7
:103E30008B1A9B0AAB0ABB0AAC01CA01DA012D91AD
:103E4000AD012A30F1F02223E1F0322F3D7F3C33E7
:103E500009F482CF2032A9F0293099F0263289F076
:103E6000273209F479CF223209F476CFCF01880DB9
:103E7000991DDC012C93BFEF8B1A9B0AAB0ABB0A7E
:103E8000DCCFB501A4014F5F5F4F6F4F7F4FDF0164
:103E9000A80DB91D1C92BFEFCB1ADB0AEB0AFB0A77
:103EA00024962ACFCDB7DEB7E2E10C944D338F9242
:103EB0009F92AF92BF92EF92FF920F931F93CF9377
:103EC000DF938EEE92E09F938F9384E591E09F9332
:103ED0008F930E94A016CDE4D3E001E715E00F9088
:103EE0000F900F900F9080E090E0DC0127E5E22E2C
:103EF00021E0F22E4C015D01FFEF8F1A9F0AAF0AFD
:103F0000BF0A409108015091090160910A01709126
:103F10000B0184179507A607B707D0F4FE01229678
:103F200025913591F8010E5F1F4F859195913F9333
:103F30002F939F938F93FF92EF920E94A0160F9062
:103F40000F900F900F900F900F90D501C401D2CF1A
:103F50008FE591E09F938F930E94A0160F900F9092
:103F6000DF91CF911F910F91FF90EF90BF90AF9095
:103F70009F908F900895AFEBB0E0E1ECFFE10C94DF
:103F8000313382E691E00E94A1159E0125563F4FF4
:103F9000C555DF4F39832883CB5AD040AE014D55EC
:103FA0005F4FC355DF4F59834883CD5AD04000E55A
:103FB000F02E88E691E09F938F931F921F920E94AC
:103FC0006816ECE2F1E085919591A591B591F89E86
:103FD000F001F99EF00D1124CF018C579A4FE05853
:103FE000FA4F938382839183808340E050E0BA014B
:103FF00084A195A10E94FD1201E210E020E030E0D2
:10400000AE01465D5F4F60E070E0CB010E94BE10E4
:10401000482F880F550B660B770B0F900F900F9062
:104020000F904E3FFFEF5F076F077F0709F4AFC3A5
:1040300042305105610571050CF4BBCFEAE2F0E0B6
:10404000EC0FFD1FE40FF51F8AE080839E01255BC6
:104050003F4F6901CE0185599F4F7C018E01095563
:104060001F4F2A5431098154910931DE1B012C0163
:104070009FEF291639064906590639F4AFE6B1E033
:10408000BF93AF938AE491E0BBC121143104410492
:10409000510419F488ED92E0E9C1B201A101415047
:1040A000510961097109FA01EE0FFF1FEE0FFF1FA1
:1040B0002BE430E02C0F3D1FE20FF31F8081918134
:1040C000A281B381892B8A2B8B2BE1F4C955DF4F59
:1040D00088819981AA81BB81C75AD0400297A109E2
:1040E000B109C955DF4F88839983AA83BB83C75A17
:1040F000D0401A012B0131E0C754DF4F3883C95B30
:10410000D04005C0C754DF4F1882C95BD04043E0A0
:1041100024163104410451040CF4F0C0B201A10191
:1041200042505109610971099A01220F331F220F70
:10413000331FEBE4F0E0EC0FFD1FE20FF31FC08034
:10414000D180E280F380D701C6010197A109B109AE
:104150000297A105B10508F055C0D201C101019730
:10416000A109B109880F991F880F991FEBE4F0E0AE
:10417000EC0FFD1FE80FF91F80809180A280B380B3
:10418000A3E08A169104A104B10409F010CFEBE674
:10419000F0E0EC0FFD1FE80FF91FB1E0CB16D104E2
:1041A000E104F10459F44080518001E010E00C0F6B
:1041B0001D1F040D151D612C712C0AC060807180BB
:1041C000E1E0F0E0EC0FFD1F6E0E7F1E00E010E05E
:1041D000EBE6F0E0EC0FFD1FE20FF31F8081918111
:1041E000A281B381C955DF4F88839983AA83BB839A
:1041F000C75AD0401A012B014330510561057105A2
:104200002CF480C000E010E0612C712CB201A101FF
:1042100042505109610971099A01220F331F220F7F
:10422000331FEBE4F0E0EC0FFD1FE20FF31FC08043
:10423000D180E280F380D701C6010197A109B109BD
:104240000297A105B10508F05DC0D201C101019737
:10425000A109B109880F991F880F991FEBE4F0E0BD
:10426000EC0FFD1FE80FF91F80809180A280B380C2
:10427000F3E08F169104A104B10409F0FFCEA1E090
:10428000CA16D104E104F10491F4012B09F0F6CE31
:10429000EBE6F0E0EC0FFD1FE80FF91F40805180C6
:1042A00001E010E00C0F1D1F040D151D12C061145C
:1042B000710409F0E3CEEBE6F0E0EC0FFD1FE80F30
:1042C000F91F60807180E1E0F0E0EC0FFD1F6E0EE1
:1042D0007F1EEBE6F0E0EC0FFD1FE20FF31F808185
:1042E0009181A281B381C955DF4F88839983AA83C5
:1042F000BB83C75AD0401A012B0104C000E010E074
:10430000612C712CFE01E55BFF4F80E090E0DC0149
:1043100082159305A405B5056CF441915191619105
:1043200071914330510561057105F1F40196A11DAC
:10433000B11DEECF2114310441045104A9F091E7DD
:10434000A92E95E0B92EC0900801D0900901E09007
:104350000A01F0900B01C155DF4F188219821A82B1
:104360001B82CF5AD04037C02FE631E03F932F93C6
:104370007FC0F50132965F0132970590F491E02DF0
:10438000C254DF4FF983E883CE5BD040CF010E9457
:10439000E9334C01AC01C254DF4F68817981CE5BB7
:1043A000D040CE0101960E94F233892BB1F1C15564
:1043B000DF4F288139814A815B81CF5AD0402F5FFE
:1043C0003F4F4F4F5F4FC155DF4F288339834A839B
:1043D0005B83CF5AD040C155DF4F88819981AA8134
:1043E000BB81CF5AD0408C159D05AE05BF0509F69F
:1043F000A1E0B0E0AC0FBD1FBF93AF938DE791E09C
:104400009F938F931F921F920E9468160F900F9098
:104410000F900F900F900F90CACDE1E0F0E0EC0FFD
:10442000FD1FE80DF91D80818111C1CFC155DF4FFE
:10443000E881F981CF5AD040EE0FFF1FC954DF4FFA
:10444000F983E883C75BD040C155DF4F28813981AC
:10445000CF5AD040E20FF31FE35EFC4F84918823D4
:1044600009F45AC0012B69F083E991E09F938F937F
:104470001F921F920E9468160F900F900F900F903E
:1044800096CD6114710481F7C754DF4F3881C95B41
:10449000D0403111E9CF9E0125593F4F7E014BE8B5
:1044A000E40EF11C80E090E0DC01870182159305A9
:1044B000A405B505A4F4F90141915191619171915F
:1044C0009F01E1E0F0E0EC0FFD1F4E0F5F1FF701D1
:1044D000419351937F010196A11DB11DE7CFC954AE
:1044E000DF4FE881F981C75BD040C155DF4F28819C
:1044F0003981CF5AD040E20FF31FE25EFC4F0590A6
:10450000F491E02DB801C10109956D3F7F4F8F4FA8
:104510009F4F09F04CCD3BC10115110501F120EC75
:1045200031E0A80162E070E080E090E00E94D00FEE
:10453000282F880F330B440B550BC654DF4F2883AD
:1045400039834A835B83CA5BD0402F3F3F4F4F4F35
:104550005F4F69F41F930F9383EC91E051CFC654E2
:10456000DF4F188219821A821B82CA5BD040611405
:104570007104A9F122EE31E0A30162E070E080E075
:1045800090E00E94D00F282F880F330B440B550B5F
:10459000CD54DF4F288339834A835B83C35BD0408C
:1045A0002F3F3F4F4F4F5F4F29F47F926F9284EE22
:1045B00091E026CFA12CB12C6501E12CF12C8701D3
:1045C00022E030E040E050E0CD54DF4F6881798157
:1045D0008A819B81C35BD0400E94E70808C0CD540C
:1045E000DF4F188219821A821B82C35BD040A4015C
:1045F000C254DF4F68817981CE5BD040CE018556B1
:104600009F4F0E940034EBE9F0E0EC0FFD1FE80D36
:10461000F91D1082C255DF4F9881CE5AD0409F932A
:10462000C355DF4FA881CD5AD040AF935F924F92D0
:104630003F922F921F9282E08F93C455DF4FB88133
:10464000CC5AD040BF93C555DF4FE881CB5AD040FC
:10465000EF931F9284E18F93C954DF4FE881F98172
:10466000C75BD040E350FD4F859195919F938F9309
:10467000C954DF4FE881F981C75BD040C155DF4F96
:1046800028813981CF5AD040E20FF31FE25EFC4F00
:10469000859195919F938F930E944509C155DF4F56
:1046A000688379838A839B83CF5AD0400FB6F8946E
:1046B000DEBF0FBECDBF6F3F7F4F8F4F9F4F19F4AF
:1046C00084E092E0D3CEC955DF4FC880D980EA801C
:1046D000FB80C75AD040CE018D559F4F4C01DE0163
:1046E00011965D018E0105591F4FA2019101C1551F
:1046F000DF4F688179818A819B81CF5AD0406BDA04
:104700008F3FF1F22BE5C155DF4FE881F981CF5A98
:10471000D0402E9FC0012F9F900D1124895C9C4F8B
:10472000FC01EF5AFF4FC654DF4F28813981CA5B25
:10473000D040318320833296CD54DF4F4881598158
:10474000C35BD040518340830E945E11C155DF4F4F
:10475000688179818A819B81CF5AD0400E94611201
:10476000C754DF4F5881C95BD040511120CC0E9403
:104770002111C155DF4F288139814A815B81CF5A90
:10478000D040621773078407950789F710CC8BE137
:1047900092E09F938F931F921F920E9468160F9032
:1047A0000F900F900F9061E070E080E090E0C154B6
:1047B000DF4FE2E10C944D33E091F602F091F70205
:1047C0002E2F9F2F81918032D9F38930C9F3209306
:1047D000F6029093F7020895CF93DF93EC011092C5
:1047E000E40280E090E0FE012491222369F16091CF
:1047F000F6027091F702FB01E80FF91F2081FE011C
:104800003491231303C001962196EDCFFE0144910C
:1048100030E020583F4F50E02417350749F4019607
:10482000860F971F9093F7028093F602C5DF0CC0A6
:10483000FE018491219687FFFBCF8091E4028F5F78
:104840008093E402B9DFCDCFDF91CF910895B4DF3B
:10485000E091F602F091F70280E090E06AE03E2FEE
:104860002F2F419150ED540F5A30A8F4893959E156
:10487000950738F03093F6022093F7028FEF9FEF01
:104880000895689F9001699F300D1124C901C09758
:10489000840F911DE4CF3093F6022093F702089520
:1048A000E091ED02F091EE028091EB029091EC022A
:1048B0004091E2025091E302E817F90751F020819C
:1048C00031812417350720F42281E20FF11DF4CF46
:1048D000CF010895E091EB02F091EC02329690E066
:1048E00080818A30B1F0981769F0823269F087329E
:1048F00069F091110CC02FE9280F2A3140F4805241
:10490000808305C090E003C092E201C097E2319637
:10491000E7CF0895FF920F931F93CF93DF93C1E0EA
:10492000D0E04ADFE091F602F091F702A081AD32CB
:1049300049F43196F093F702E093F602D195C195D0
:10494000D109EFCFA03331F43196F093F702E09321
:10495000F6028EC08FEC8A0F8930B8F480E090E0C8
:104960004AE0489F9001499F300D11248191B9017F
:10497000680F711DCB01C097208120532A3088F326
:10498000F093F702E093F60275C08FEB8A0F8A313D
:1049900008F04DC0818181548A3178F0B0E0A15493
:1049A000B048AA0FBB1F8091E9029091EA02A80FBC
:1049B000B91F3C9111962C9150C08DE796E00CDF09
:1049C000F090E40275E0F71609F44FC0E091F602AA
:1049D000F091F7028081883209F047C03196F09358
:1049E000F702E093F602B7D08C01E091F602F09165
:1049F000F70280818932C9F53196F093F702E0938E
:104A0000F60281E0F81659F0F81690F124E0F2125F
:104A10000EC00E94BE33B8010E94D0322BC0C80124
:104A200017FF28C088279927801B910B23C0E0918E
:104A3000F602F091F70280818832B9F43196F09352
:104A4000F702E093F60287D0382F292FE091F60283
:104A5000F091F7028081893241F43196F093F702A8
:104A6000E093F602832F922F05C081E08093F1023C
:104A700080E090E0BC016C9FC0016D9F900D7C9F19
:104A8000900D1124CDB7DEB7E5E00C945A331F9397
:104A9000CF93DF933FDFEC018FDE11E0E091F60270
:104AA000F091F70280818A3279F43196F093F7021F
:104AB000E093F6022FDF9E01289FE001299FD00D91
:104AC000389FD00D1124EACF8F3289F43196F093BC
:104AD000F702E093F6021EDFBC01892B29F0CE011C
:104AE0000E94D032EB01DACF1093F102D7CFCE0182
:104AF000DF91CF911F910895CF93DF93E091F6025C
:104B0000F091F70280818D3229F08B3219F0BFDFEE
:104B1000EC0102C0C0E0D0E0E091F602F091F702B3
:104B200080818D3249F43196F093F702E093F602DA
:104B3000AEDFC81BD90BF0CF8B3249F43196F0931E
:104B4000F702E093F602A3DFC80FD91FE5CFCE012D
:104B5000DF91CF910895CF93DF93CEDFEC01809169
:104B6000F10281113EC089E696E036DEE091E40272
:104B7000E730B9F18E2F90E087309105A0F5FC0168
:104B8000E059FF4F0C942133B7DF31E020E0C81724
:104B9000D90724F522C0B0DF31E020E0C817D907DB
:104BA000E9F41BC0A9DF31E020E08C179D07B4F0C9
:104BB00014C0A2DF31E020E0C817D90771F40EC09D
:104BC0009BDF31E020E08C179D0744F406C094DFA2
:104BD00031E020E0C817D9070CF030E0832F922F86
:104BE00004C0CE0102C080E090E0DF91CF91089533
:104BF000282F082E000C330B3F938F9389E292E00D
:104C00009F938F930E94A0160F900F900F900F907C
:104C100008950F931F93CF93DF93EC0197FF05C087
:104C2000D195C195D1098DE2E3DFE091E502F091E4
:104C3000E60200E010E02AE030E0CE01B9010E9477
:104C4000D032805D8293EB010F5F1F4F2097A9F751
:104C5000F093E602E093E502E091E502F091E602CE
:104C60008191F093E602E093E502C2DF0150110961
:104C700099F7DF91CF911F910F910895CF93DF9313
:104C8000EC01CE01FE012491222329F02196FC01A2
:104C90008491AEDFF6CFDF91CF9108958AE0A8DF4F
:104CA0008DE0A6CFEBDFFACFE091F402F091F502B0
:104CB000808191813396F093F502E093F402A9DFAD
:104CC00080E296DFE091F402F091F50280818A3073
:104CD00059F08EDF8091F4029091F5020196909345
:104CE000F5028093F402EECF3196F093F502E09353
:104CF000F402D4CF7DDF80E27BDF8091EB029091E4
:104D0000EC0202969093F7028093F60260E070E066
:104D1000CB010E94740B082E000C990B8A30910570
:104D200011F48DE090E08A3049F08D3039F0209117
:104D3000F6023091F7028830D1F408C0AFDFE0917D
:104D4000F602F091F7028AE0808308958091EB02E9
:104D50009091EC0228173907C9F22150310930939C
:104D6000F7022093F6028DEE95E088DFCFCF4091D9
:104D7000E9025091EA02425051092417350711F413
:104D800088E006C0F9018193F093F702E093F60200
:104D90002FDFBCCFA4E0B1E0E0EDF6E20C943133BC
:104DA000CE0101969093EE028093ED029093EC0277
:104DB0008093EB024E018BEF881A8EEF980A909247
:104DC000E6028092E502CE0189519F4F9093F00256
:104DD0008093EF0244979093EA028093E90286E27F
:104DE00096E060DF8091E9029091EA022091EB0267
:104DF0003091EC02821B930B0CDF89E196E052DFCD
:104E000083E096E04FDF2E01ACEF4A1AAEEF5A0A6C
:104E100057E4252E66E4362E0EE51092E802109235
:104E2000E7029092E6028092E50286E696E03ADF9B
:104E30008EE360DF4FDDC090EB02D090EC02760194
:104E4000B2E0EB0EF11CD701FD0131968C918A3056
:104E500011F0DF01F9CFB093F702A093F602209191
:104E6000E9023091EA02BF01C901FB014291BF0191
:104E7000FC014293CF01E616F706B9F7C7018A1B7A
:104E80009B0B0197820F931F9093F7028093F6027A
:104E9000DEDC5C019093E3028093E2028DDCA114DE
:104EA000B10409F48CC0FFEFAF16BF0609F484C04B
:104EB0006090F6027090F70210E0F301E10FF11D2F
:104EC00080818A3011F01F5FF8CF1C5F730183E08F
:104ED000E81AF108F092F702E092F602D701AD92DB
:104EE000BC92F30131971083DBDCFC01C816D906B4
:104EF000D1F080819181A816B906A9F482819F0121
:104F0000280F311DC81AD108AF014C155D0539F0C5
:104F1000D9018D919D01DA018D93AD01F6CF5093AA
:104F2000EC024093EB02D3018C918A3009F480CFDC
:104F3000A091EB02B091EC02112369F1212F30E036
:104F4000C7018A1B9B0B2817390708F4C9019D016B
:104F5000280F391FA9015D01CC24DD24CE1ADF0AF8
:104F6000B5016C0D7D1D672B39F0D5016E915D018A
:104F7000DA016E93AD01F4CFD701AF01480F591F8D
:104F8000E417F50719F06D916193FACF181BE80E3D
:104F9000F91ED901D1CFB093EC02A093EB02F092AD
:104FA000F702E092F60244CF1092F102D4DD209194
:104FB000F102222309F459C08AE596E038CFF09235
:104FC000F702E092F602F60182818A3009F430CFCE
:104FD00082E996E001DC1091E402812F90E08D31AE
:104FE000910508F0D0C0FC01E958FF4F0C94213323
:104FF0008091ED029091EE029093EC028093EB028F
:1050000085EF95E014CFE091F602F091F7028081F0
:105010008A30E9F08FE596E031DE8091E7029091E9
:10502000E802009791F0E091F602F091F70210810A
:105030001A3009F000839093F5028093F40234DE75
:10504000E091F602F091F702108328DEF1CE809114
:10505000ED029091EE029093EC028093EB02E8CE89
:105060008091ED029091EE026EC1E091F602F09116
:10507000F70220812A3009F49FCF892B09F0A8CFAD
:1050800082C01092F10267DD9093E3028093E20206
:105090008091F102811190CFE091F602F091F70238
:1050A00080818A3009F44EC187CFE091F602F091F9
:1050B000F70280818A3009F0ADCF8091EB029091A8
:1050C000EC0241C179DBE091F602F091F702108128
:1050D0008FEB810F8A3108F09DCF3196F093F70264
:1050E000E093F60269DBE091F602F091F70280812D
:1050F0008A3009F068C08091F6029091F70290938F
:10510000F3028093F2028FE3F5DDE4DB8091EB02A2
:105110009091EC0202969093F7028093F6024CDB9A
:105120001092F10218DD2091F1022111E4CFE12F5C
:10513000F0E0E154F048EE0FFF1F2091E9023091BA
:10514000EA02E20FF31F918380838091F202909133
:10515000F3029093F7028093F6028091F602909109
:10516000F702FC01019620812A33D9F3F093F7026C
:10517000E093F60221DBE091F602F091F7028081E4
:105180008A3009F025CFE091E702F091E8023097EC
:1051900009F44ECE8281E80FF11DF093E802E0930E
:1051A000E7028091E7029091E8022091EB023091B2
:1051B000EC028217930709F430CE03969093F7021E
:1051C0008093F60205CF8A3309F495CF23CFF4DA22
:1051D000E091F602F091F70210818FEB810F8A3196
:1051E00008F018CF3196F093F702E093F602E4DA74
:1051F000E091F602F091F70280818D3309F00ACF39
:105200003196F093F702E093F602D6DA1092F102AB
:10521000A2DC6C018091F1028111FCCE8AE796E05C
:10522000DBDA8091E4028111F5CE95DC7C0180917E
:10523000F1028111EFCE85E796E0CEDA8091E402AB
:10524000811107C088DC5C018091F102882321F084
:10525000E1CEAA24A394B12CAFDA8091F60290910A
:10526000F702DC012C912A3019F02A3309F0D2CE52
:105270003091F1023111A0CE2A3009F09DCEE0919B
:10528000E502F091E6029F01265F3F4F4091EF0259
:105290005091F0022417350720F483E596E002DDF3
:1052A000BCCD3A97F093E602E093E502A12FB0E07F
:1052B000A154B048AA0FBB1F2091E9023091EA0225
:1052C000A20FB31FCD92DC9230821183F382E2826F
:1052D000B582A482918780878091E7029091E8024D
:1052E000978386833ACF1092F10235DC9093E302E4
:1052F0008093E2028091F10281115ECEA091F602CC
:10530000B091F7028C918A3009F056CEE091E50217
:10531000F091E602CF0105962091EF023091F00264
:105320008217930708F4B9CF3597F093E602E0931C
:10533000E5022082B483A3838091E7029091E80282
:1053400092838183ADDA9093E8028093E70229CFBC
:1053500033DAE091F602F091F702808181548A31CC
:1053600008F02ACE3196F093F702E093F60224DAA1
:10537000E091F602F091F70280818A3319F08A30C9
:1053800009F048CE8091E5029091E6022091F60264
:105390003091F702FC0121503109E415F50508F0C0
:1053A0000BCE40814634C9F0473409F036CD1A306F
:1053B00091F4218132813093E8022093E702238126
:1053C00034813093F7022093F60205969093E6021B
:1053D0008093E502C2CE3596E0CF153009F043C088
:1053E000D9014C91A42FB0E04181042E000C550B43
:1053F000A417B507C1F5A154B048AA0FBB1F8091EF
:10540000E9029091EA02A80FB91F2D913C911197E2
:1054100084819581280F391F2D933C938481958138
:105420001816190634F4828193818217930744F485
:1054300014C0892B91F082819381281739076CF071
:10544000808591859093F7028093F60286819781FB
:105450009093E8028093E70280CE3A96F093E602BA
:10546000E093E5027ACE3A9698CFE091F602F09179
:10547000F70280819FEB980F9A3108F09DCDE82EBE
:10548000F12CB1E4EB1AB0E8FB0AEE0CFF1C8091A2
:10549000E9029091EA02E80EF91ECF01019690937D
:1054A000F7028093F60288D9E091F602F091F702B4
:1054B00080818D3309F0AECD3196F093F702E09301
:1054C000F6027AD91092F10246DB9C018091F1023A
:1054D0008111A0CDE091F602F091F70290819A300F
:1054E00019F09A3309F096CDF7013183208335CE38
:1054F0001092F10230DB8091F10281118BCD5CD9E9
:10550000E091F602F091F70280818C3209F082CDB1
:105510003196F093F702E093F6024ED91092F10221
:105520001ADB8091F102811175CDE091F602F091C4
:10553000F70280818A3009F41DCE8A3309F40DCE3A
:1055400069CD85D99093E3028093E202E091F6025F
:10555000F091F70280818A3009F05CCDA1D9909357
:10556000F5028093F4022091F4023091F5028091CB
:10557000EB029091EC022817390709F44ECC94DB2A
:10558000F2CFE091F602F091F70280818A3339F48C
:1055900085DB8091F6029091F7020196DACD8A3090
:1055A00009F4F1CD09D9E091F602F091F7021081EA
:1055B000123211F0173219F53196F093F702E09399
:1055C000F6028191181719F08A30D9F718C0E091C6
:1055D000F602F091F7028081181759F009DB8091EB
:1055E000F6029091F70201969093F7028093F602EB
:1055F000EECF3196F093F702E093F60213C0E091FC
:10560000F602F091F7028081823209F403CD8732ED
:1056100009F400CD1092F1029EDA2091F1022111DD
:10562000F9CCF7DAE091F602F091F70280818C3242
:1056300031F43196F093F702E093F602B3CF8B3357
:1056400061F481818A3019F08A3309F0E3CC319614
:10565000F093F702E093F60280CD8A3019F08A3396
:1056600009F0D8CC1BDB79CD8091E9029091EA0258
:105670002091EB023091EC02821B930BCADA89E194
:1056800096E010DB6ACD1092F10265DA2091F1020A
:105690002111C0CC0E94C13360CDCC5FDE4FE2E16E
:1056A000FCC7AF92BF92CF92DF92EF92FF920F931F
:1056B0001F93A12CB12C6501E12CF12C870124E072
:1056C00030E040E050E060E070E0CB010E94E7088D
:1056D00061DB25E030E040E050E060E070E0CB01CD
:1056E0000E94E70880E01F910F91FF90EF90DF90FC
:1056F000CF90BF90AF900895FC0140E050E08AE069
:105700009191292F990F330B2115310589F0B9019A
:10571000605371096A30710568F4849FB001859FF8
:10572000700D1124260F371FA90140535109E8CFEE
:10573000CA01089580E090E00895FC019C012D5F6E
:105740003F4F37FF02C02D5F3F4F35952795359569
:105750002795AF014C5F5F4F240F351FE93087E07D
:10576000F8078CF0CF01855A96406CE97FEF18D787
:10577000260F371FCF018154964060E971E010D7A2
:10578000260F371F03C0E93DF64014F02D5F3F4F51
:10579000C90167E070E004C7EF92FF920F931F9377
:1057A000CF93DF937C01C1E0D0E003E912E0CE1596
:1057B000DF0544F41F930F930E94A01621960F90CB
:1057C0000F90F5CFCDB7DEB7E6E073C7A0E0B0E04D
:1057D000EBEEFBE249C74C018B01CB01AEDFEC01E4
:1057E0008DE180930E018EE180931501C801019631
:1057F000A4DF07968C1B9D0B67E070E0D1D681304B
:10580000910531F0029739F083E18093150103C0CF
:105810008CE180930E01EDE0F1E0CF018C509140DE
:105820008815990534F48191C80FD11D87FDDA954B
:10583000F4CFCE0167E070E0B3D68C01880F991FDA
:10584000800F911F0196A8DFC1E0D0E0C401845F02
:105850009E4F4C0133E9E32E32E0F32E4AE0A42EB2
:10586000B12C59E2C52E52E0D52E6EE1562E78EDC0
:10587000672E72E0772EF4018081282F082E000C0D
:10588000330B2C173D070CF446C0C330D10539F457
:105890008331C1F4F4015082CEE0D0E003C0CA30BD
:1058A000D10584F0CE01B5017BD6605D7F4F7F933B
:1058B0006F93DF92CF920E94A0160F900F900F90DF
:1058C0000F9006C0FF92EF920E94A0160F900F90CB
:1058D000CE01B50165D6C0969F938F93DF92CF928C
:1058E0000E94A016FF92EF920E94A0160F5F1F4F1A
:1058F0000F900F900F900F900F900F9007301105A1
:1059000041F47F926F920E94A0160F900F9000E0DA
:1059100010E02196B0CF88ED92E09F938F930E9484
:10592000A0160F900F90CDB7DEB7EFE0B9C6A0E09C
:10593000B0E0ECE9FCE299C67B01823091052CF4E1
:1059400080E090E00E94910A03C0029709F44BC0E6
:10595000F70182819381D0DE6C01EC012197CC307C
:10596000D10508F091C0F70184819581C5DE8C01D5
:1059700001978F30974208F087C0FE01EE0FFF1F9E
:10598000E050F94F859195919F938F938CE292E02F
:105990009F938F930E94A0161F930F9384E392E02E
:1059A0009F938F930E94A01688E497E09F938F9314
:1059B0008BE591E09F938F930E94A016B801C601DA
:1059C00005DF88ED92E09F938F930E94A01680E000
:1059D00090E00E94910A8DB79EB70E960FB6F8948C
:1059E0009EBF0FBE8DBFF7018281938185DE3C0192
:1059F00001978F30974208F047C080E0A82E87E0DB
:105A0000B82EC1E0D0E09CE2C92E92E0D92E24E36A
:105A1000E22E22E0F22E08E417E03BE5832E31E08F
:105A2000932EF50132965F013297859195919F9360
:105A30008F93DF92CF920E94A0167F926F92FF9277
:105A4000EF920E94A0161F930F939F928F920E9435
:105A5000A016B301CE01BADE21968DB79EB70C9683
:105A60000FB6F8949EBF0FBE8DBFCD30D105C9F6DD
:105A700088ED92E09F938F930E94A01680E090E0C3
:105A80000E94910A0F900F9088E392E09F938F936A
:105A90000E94A0160F900F90CDB7DEB7EEE001C6C2
:105AA00086E492E09F938F931F921F920E94681644
:105AB0008BE492E09F938F931F921F920E9468162F
:105AC0008DB79EB708960FB6F8949EBF0FBE8DBFD8
:105AD00080E00895A0E5B0E0EFE6FDE2D0C5FB016F
